{
  "_format": "hh-sol-artifact-1",
  "contractName": "Teacher",
  "sourceName": "contracts/Teacher.sol",
  "abi": [
    {
      "inputs": [
        {
          "internalType": "contract IScore",
          "name": "_scoreAddr",
          "type": "address"
        }
      ],
      "stateMutability": "nonpayable",
      "type": "constructor"
    },
    {
      "inputs": [],
      "name": "score",
      "outputs": [
        {
          "internalType": "contract IScore",
          "name": "",
          "type": "address"
        }
      ],
      "stateMutability": "view",
      "type": "function"
    },
    {
      "inputs": [
        {
          "internalType": "address",
          "name": "_addr",
          "type": "address"
        },
        {
          "internalType": "uint256",
          "name": "_score",
          "type": "uint256"
        }
      ],
      "name": "teacherSetStudentScore",
      "outputs": [],
      "stateMutability": "nonpayable",
      "type": "function"
    }
  ],
  "bytecode": "0x608060405234801561001057600080fd5b506040516101ea3803806101ea83398101604081905261002f91610054565b600080546001600160a01b0319166001600160a01b0392909216919091179055610084565b60006020828403121561006657600080fd5b81516001600160a01b038116811461007d57600080fd5b9392505050565b610157806100936000396000f3fe608060405234801561001057600080fd5b50600436106100365760003560e01c806305fee3811461003b578063efedc66914610050575b600080fd5b61004e6100493660046100e9565b61007f565b005b600054610063906001600160a01b031681565b6040516001600160a01b03909116815260200160405180910390f35b6000546040516359738b8d60e01b81526001600160a01b03848116600483015260248201849052909116906359738b8d90604401600060405180830381600087803b1580156100cd57600080fd5b505af11580156100e1573d6000803e3d6000fd5b505050505050565b600080604083850312156100fc57600080fd5b82356001600160a01b038116811461011357600080fd5b94602093909301359350505056fea2646970667358221220eff71ef0525c6a23320d38bec53ab732e52c510c2a507d716524e59dbe7f878b64736f6c634300080c0033",
  "linkReferences": {},
  "deployedLinkReferences": {}
}