{
  "contractName": "OkTestToken",
  "abi": [
    {
      "inputs": [
        {
          "internalType": "uint256",
          "name": "_reserve0",
          "type": "uint256"
        },
        {
          "internalType": "uint256",
          "name": "_reserve1",
          "type": "uint256"
        }
      ],
      "stateMutability": "nonpayable",
      "type": "constructor"
    },
    {
      "anonymous": false,
      "inputs": [
        {
          "indexed": true,
          "internalType": "address",
          "name": "owner",
          "type": "address"
        },
        {
          "indexed": true,
          "internalType": "address",
          "name": "spender",
          "type": "address"
        },
        {
          "indexed": false,
          "internalType": "uint256",
          "name": "value",
          "type": "uint256"
        }
      ],
      "name": "Approval",
      "type": "event"
    },
    {
      "anonymous": false,
      "inputs": [
        {
          "indexed": true,
          "internalType": "address",
          "name": "previousOwner",
          "type": "address"
        },
        {
          "indexed": true,
          "internalType": "address",
          "name": "newOwner",
          "type": "address"
        }
      ],
      "name": "OwnershipTransferred",
      "type": "event"
    },
    {
      "anonymous": false,
      "inputs": [
        {
          "indexed": true,
          "internalType": "address",
          "name": "from",
          "type": "address"
        },
        {
          "indexed": true,
          "internalType": "address",
          "name": "to",
          "type": "address"
        },
        {
          "indexed": false,
          "internalType": "uint256",
          "name": "value",
          "type": "uint256"
        }
      ],
      "name": "Transfer",
      "type": "event"
    },
    {
      "inputs": [
        {
          "internalType": "address",
          "name": "owner",
          "type": "address"
        },
        {
          "internalType": "address",
          "name": "spender",
          "type": "address"
        }
      ],
      "name": "allowance",
      "outputs": [
        {
          "internalType": "uint256",
          "name": "",
          "type": "uint256"
        }
      ],
      "stateMutability": "view",
      "type": "function",
      "constant": true
    },
    {
      "inputs": [
        {
          "internalType": "address",
          "name": "spender",
          "type": "address"
        },
        {
          "internalType": "uint256",
          "name": "amount",
          "type": "uint256"
        }
      ],
      "name": "approve",
      "outputs": [
        {
          "internalType": "bool",
          "name": "",
          "type": "bool"
        }
      ],
      "stateMutability": "nonpayable",
      "type": "function"
    },
    {
      "inputs": [
        {
          "internalType": "address",
          "name": "account",
          "type": "address"
        }
      ],
      "name": "balanceOf",
      "outputs": [
        {
          "internalType": "uint256",
          "name": "",
          "type": "uint256"
        }
      ],
      "stateMutability": "view",
      "type": "function",
      "constant": true
    },
    {
      "inputs": [],
      "name": "decimals",
      "outputs": [
        {
          "internalType": "uint8",
          "name": "",
          "type": "uint8"
        }
      ],
      "stateMutability": "view",
      "type": "function",
      "constant": true
    },
    {
      "inputs": [
        {
          "internalType": "address",
          "name": "spender",
          "type": "address"
        },
        {
          "internalType": "uint256",
          "name": "subtractedValue",
          "type": "uint256"
        }
      ],
      "name": "decreaseAllowance",
      "outputs": [
        {
          "internalType": "bool",
          "name": "",
          "type": "bool"
        }
      ],
      "stateMutability": "nonpayable",
      "type": "function"
    },
    {
      "inputs": [
        {
          "internalType": "address",
          "name": "spender",
          "type": "address"
        },
        {
          "internalType": "uint256",
          "name": "addedValue",
          "type": "uint256"
        }
      ],
      "name": "increaseAllowance",
      "outputs": [
        {
          "internalType": "bool",
          "name": "",
          "type": "bool"
        }
      ],
      "stateMutability": "nonpayable",
      "type": "function"
    },
    {
      "inputs": [],
      "name": "name",
      "outputs": [
        {
          "internalType": "string",
          "name": "",
          "type": "string"
        }
      ],
      "stateMutability": "view",
      "type": "function",
      "constant": true
    },
    {
      "inputs": [],
      "name": "owner",
      "outputs": [
        {
          "internalType": "address",
          "name": "",
          "type": "address"
        }
      ],
      "stateMutability": "view",
      "type": "function",
      "constant": true
    },
    {
      "inputs": [],
      "name": "renounceOwnership",
      "outputs": [],
      "stateMutability": "nonpayable",
      "type": "function"
    },
    {
      "inputs": [],
      "name": "reserve0",
      "outputs": [
        {
          "internalType": "uint256",
          "name": "",
          "type": "uint256"
        }
      ],
      "stateMutability": "view",
      "type": "function",
      "constant": true
    },
    {
      "inputs": [],
      "name": "reserve1",
      "outputs": [
        {
          "internalType": "uint256",
          "name": "",
          "type": "uint256"
        }
      ],
      "stateMutability": "view",
      "type": "function",
      "constant": true
    },
    {
      "inputs": [],
      "name": "symbol",
      "outputs": [
        {
          "internalType": "string",
          "name": "",
          "type": "string"
        }
      ],
      "stateMutability": "view",
      "type": "function",
      "constant": true
    },
    {
      "inputs": [],
      "name": "totalSupply",
      "outputs": [
        {
          "internalType": "uint256",
          "name": "",
          "type": "uint256"
        }
      ],
      "stateMutability": "view",
      "type": "function",
      "constant": true
    },
    {
      "inputs": [
        {
          "internalType": "address",
          "name": "to",
          "type": "address"
        },
        {
          "internalType": "uint256",
          "name": "amount",
          "type": "uint256"
        }
      ],
      "name": "transfer",
      "outputs": [
        {
          "internalType": "bool",
          "name": "",
          "type": "bool"
        }
      ],
      "stateMutability": "nonpayable",
      "type": "function"
    },
    {
      "inputs": [
        {
          "internalType": "address",
          "name": "from",
          "type": "address"
        },
        {
          "internalType": "address",
          "name": "to",
          "type": "address"
        },
        {
          "internalType": "uint256",
          "name": "amount",
          "type": "uint256"
        }
      ],
      "name": "transferFrom",
      "outputs": [
        {
          "internalType": "bool",
          "name": "",
          "type": "bool"
        }
      ],
      "stateMutability": "nonpayable",
      "type": "function"
    },
    {
      "inputs": [
        {
          "internalType": "address",
          "name": "newOwner",
          "type": "address"
        }
      ],
      "name": "transferOwnership",
      "outputs": [],
      "stateMutability": "nonpayable",
      "type": "function"
    },
    {
      "inputs": [
        {
          "internalType": "address",
          "name": "_to",
          "type": "address"
        }
      ],
      "name": "mint",
      "outputs": [],
      "stateMutability": "nonpayable",
      "type": "function"
    },
    {
      "inputs": [
        {
          "internalType": "address",
          "name": "account",
          "type": "address"
        },
        {
          "internalType": "uint256",
          "name": "amount",
          "type": "uint256"
        }
      ],
      "name": "burn",
      "outputs": [],
      "stateMutability": "nonpayable",
      "type": "function"
    },
    {
      "inputs": [
        {
          "internalType": "address",
          "name": "newOwner",
          "type": "address"
        }
      ],
      "name": "passMinterRole",
      "outputs": [
        {
          "internalType": "bool",
          "name": "",
          "type": "bool"
        }
      ],
      "stateMutability": "nonpayable",
      "type": "function"
    },
    {
      "inputs": [
        {
          "internalType": "uint256",
          "name": "_state",
          "type": "uint256"
        }
      ],
      "name": "updateExchangeState",
      "outputs": [],
      "stateMutability": "nonpayable",
      "type": "function"
    },
    {
      "inputs": [
        {
          "internalType": "uint256",
          "name": "amountOut",
          "type": "uint256"
        },
        {
          "internalType": "uint256",
          "name": "reserveIn",
          "type": "uint256"
        },
        {
          "internalType": "uint256",
          "name": "reserveOut",
          "type": "uint256"
        }
      ],
      "name": "getAmountIn",
      "outputs": [
        {
          "internalType": "uint256",
          "name": "amountIn",
          "type": "uint256"
        }
      ],
      "stateMutability": "pure",
      "type": "function",
      "constant": true
    },
    {
      "inputs": [],
      "name": "swapExactTokensForTokens",
      "outputs": [],
      "stateMutability": "payable",
      "type": "function",
      "payable": true
    }
  ],
  "bytecode": "0x6080604052600160065560016009556b033b2e3c9fd0803ce8000000600a553480156200002b57600080fd5b50604051620029c5380380620029c58339818101604052810190620000519190620002e5565b6040518060400160405280600e81526020017f4f4b54205465737420546f6b656e0000000000000000000000000000000000008152506040518060400160405280600381526020017f4f545400000000000000000000000000000000000000000000000000000000008152508160039080519060200190620000d5929190620001f5565b508060049080519060200190620000ee929190620001f5565b50505062000111620001056200012760201b60201c565b6200012f60201b60201c565b8160078190555080600881905550505062000391565b600033905090565b6000600560009054906101000a900473ffffffffffffffffffffffffffffffffffffffff16905081600560006101000a81548173ffffffffffffffffffffffffffffffffffffffff021916908373ffffffffffffffffffffffffffffffffffffffff1602179055508173ffffffffffffffffffffffffffffffffffffffff168173ffffffffffffffffffffffffffffffffffffffff167f8be0079c531659141344cd1fd0a4f28419497f9722a3daafe3b4186f6b6457e060405160405180910390a35050565b82805462000203906200035b565b90600052602060002090601f01602090048101928262000227576000855562000273565b82601f106200024257805160ff191683800117855562000273565b8280016001018555821562000273579182015b828111156200027257825182559160200191906001019062000255565b5b50905062000282919062000286565b5090565b5b80821115620002a157600081600090555060010162000287565b5090565b600080fd5b6000819050919050565b620002bf81620002aa565b8114620002cb57600080fd5b50565b600081519050620002df81620002b4565b92915050565b60008060408385031215620002ff57620002fe620002a5565b5b60006200030f85828601620002ce565b92505060206200032285828601620002ce565b9150509250929050565b7f4e487b7100000000000000000000000000000000000000000000000000000000600052602260045260246000fd5b600060028204905060018216806200037457607f821691505b602082108114156200038b576200038a6200032c565b5b50919050565b61262480620003a16000396000f3fe6080604052600436106101355760003560e01c806385f8c259116100ab578063a9059cbb1161006f578063a9059cbb1461043e578063d2b859c91461047b578063d7fc5b15146104a4578063dd62ed3e146104e1578063f2fde38b1461051e578063f5dbfb2e1461054757610135565b806385f8c259146103455780638da5cb5b1461038257806395d89b41146103ad5780639dc29fac146103d8578063a457c2d71461040157610135565b806339509351116100fd5780633950935114610235578063443cb4bc146102725780635a76f25e1461029d5780636a627842146102c857806370a08231146102f1578063715018a61461032e57610135565b806306fdde031461013a578063095ea7b31461016557806318160ddd146101a257806323b872dd146101cd578063313ce5671461020a575b600080fd5b34801561014657600080fd5b5061014f610551565b60405161015c9190611902565b60405180910390f35b34801561017157600080fd5b5061018c600480360381019061018791906119bd565b6105e3565b6040516101999190611a18565b60405180910390f35b3480156101ae57600080fd5b506101b7610606565b6040516101c49190611a42565b60405180910390f35b3480156101d957600080fd5b506101f460048036038101906101ef9190611a5d565b610610565b6040516102019190611a18565b60405180910390f35b34801561021657600080fd5b5061021f61063f565b60405161022c9190611acc565b60405180910390f35b34801561024157600080fd5b5061025c600480360381019061025791906119bd565b610648565b6040516102699190611a18565b60405180910390f35b34801561027e57600080fd5b506102876106f2565b6040516102949190611a42565b60405180910390f35b3480156102a957600080fd5b506102b26106f8565b6040516102bf9190611a42565b60405180910390f35b3480156102d457600080fd5b506102ef60048036038101906102ea9190611ae7565b6106fe565b005b3480156102fd57600080fd5b5061031860048036038101906103139190611ae7565b610789565b6040516103259190611a42565b60405180910390f35b34801561033a57600080fd5b506103436107d1565b005b34801561035157600080fd5b5061036c60048036038101906103679190611b14565b610859565b6040516103799190611a42565b60405180910390f35b34801561038e57600080fd5b50610397610944565b6040516103a49190611b76565b60405180910390f35b3480156103b957600080fd5b506103c261096e565b6040516103cf9190611902565b60405180910390f35b3480156103e457600080fd5b506103ff60048036038101906103fa91906119bd565b610a00565b005b34801561040d57600080fd5b50610428600480360381019061042391906119bd565b610a8a565b6040516104359190611a18565b60405180910390f35b34801561044a57600080fd5b50610465600480360381019061046091906119bd565b610b74565b6040516104729190611a18565b60405180910390f35b34801561048757600080fd5b506104a2600480360381019061049d9190611b91565b610b97565b005b3480156104b057600080fd5b506104cb60048036038101906104c69190611ae7565b610c1d565b6040516104d89190611a18565b60405180910390f35b3480156104ed57600080fd5b5061050860048036038101906105039190611bbe565b610cad565b6040516105159190611a42565b60405180910390f35b34801561052a57600080fd5b5061054560048036038101906105409190611ae7565b610d34565b005b61054f610e2c565b005b60606003805461056090611c2d565b80601f016020809104026020016040519081016040528092919081815260200182805461058c90611c2d565b80156105d95780601f106105ae576101008083540402835291602001916105d9565b820191906000526020600020905b8154815290600101906020018083116105bc57829003601f168201915b5050505050905090565b6000806105ee610e68565b90506105fb818585610e70565b600191505092915050565b6000600254905090565b60008061061b610e68565b905061062885828561103b565b6106338585856110c7565b60019150509392505050565b60006012905090565b600080610653610e68565b90506106e7818585600160008673ffffffffffffffffffffffffffffffffffffffff1673ffffffffffffffffffffffffffffffffffffffff16815260200190815260200160002060008973ffffffffffffffffffffffffffffffffffffffff1673ffffffffffffffffffffffffffffffffffffffff168152602001908152602001600020546106e29190611c8e565b610e70565b600191505092915050565b60075481565b60085481565b610706610e68565b73ffffffffffffffffffffffffffffffffffffffff16610724610944565b73ffffffffffffffffffffffffffffffffffffffff161461077a576040517f08c379a000000000000000000000000000000000000000000000000000000000815260040161077190611d30565b60405180910390fd5b61078681600a54611348565b50565b60008060008373ffffffffffffffffffffffffffffffffffffffff1673ffffffffffffffffffffffffffffffffffffffff168152602001908152602001600020549050919050565b6107d9610e68565b73ffffffffffffffffffffffffffffffffffffffff166107f7610944565b73ffffffffffffffffffffffffffffffffffffffff161461084d576040517f08c379a000000000000000000000000000000000000000000000000000000000815260040161084490611d30565b60405180910390fd5b61085760006114a8565b565b600080841161089d576040517f08c379a000000000000000000000000000000000000000000000000000000000815260040161089490611dc2565b60405180910390fd5b6000831180156108ad5750600082115b6108ec576040517f08c379a00000000000000000000000000000000000000000000000000000000081526004016108e390611e54565b60405180910390fd5b6000610901858561156e90919063ffffffff16565b90506000610918868561158490919063ffffffff16565b90506109396001828461092b9190611ea3565b61159a90919063ffffffff16565b925050509392505050565b6000600560009054906101000a900473ffffffffffffffffffffffffffffffffffffffff16905090565b60606004805461097d90611c2d565b80601f01602080910402602001604051908101604052809291908181526020018280546109a990611c2d565b80156109f65780601f106109cb576101008083540402835291602001916109f6565b820191906000526020600020905b8154815290600101906020018083116109d957829003601f168201915b5050505050905090565b610a08610e68565b73ffffffffffffffffffffffffffffffffffffffff16610a26610944565b73ffffffffffffffffffffffffffffffffffffffff1614610a7c576040517f08c379a0000000000000000000000000000000000000000000000000000000008152600401610a7390611d30565b60405180910390fd5b610a8682826115b0565b5050565b600080610a95610e68565b90506000600160008373ffffffffffffffffffffffffffffffffffffffff1673ffffffffffffffffffffffffffffffffffffffff16815260200190815260200160002060008673ffffffffffffffffffffffffffffffffffffffff1673ffffffffffffffffffffffffffffffffffffffff16815260200190815260200160002054905083811015610b5b576040517f08c379a0000000000000000000000000000000000000000000000000000000008152600401610b5290611f46565b60405180910390fd5b610b688286868403610e70565b60019250505092915050565b600080610b7f610e68565b9050610b8c8185856110c7565b600191505092915050565b610b9f610e68565b73ffffffffffffffffffffffffffffffffffffffff16610bbd610944565b73ffffffffffffffffffffffffffffffffffffffff1614610c13576040517f08c379a0000000000000000000000000000000000000000000000000000000008152600401610c0a90611d30565b60405180910390fd5b8060068190555050565b6000610c27610e68565b73ffffffffffffffffffffffffffffffffffffffff16610c45610944565b73ffffffffffffffffffffffffffffffffffffffff1614610c9b576040517f08c379a0000000000000000000000000000000000000000000000000000000008152600401610c9290611d30565b60405180910390fd5b610ca482610d34565b60019050919050565b6000600160008473ffffffffffffffffffffffffffffffffffffffff1673ffffffffffffffffffffffffffffffffffffffff16815260200190815260200160002060008373ffffffffffffffffffffffffffffffffffffffff1673ffffffffffffffffffffffffffffffffffffffff16815260200190815260200160002054905092915050565b610d3c610e68565b73ffffffffffffffffffffffffffffffffffffffff16610d5a610944565b73ffffffffffffffffffffffffffffffffffffffff1614610db0576040517f08c379a0000000000000000000000000000000000000000000000000000000008152600401610da790611d30565b60405180910390fd5b600073ffffffffffffffffffffffffffffffffffffffff168173ffffffffffffffffffffffffffffffffffffffff161415610e20576040517f08c379a0000000000000000000000000000000000000000000000000000000008152600401610e1790611fd8565b60405180910390fd5b610e29816114a8565b50565b6000610e3d34600754600854611787565b9050610e4a3033836110c7565b610e5f8160085461158490919063ffffffff16565b60088190555050565b600033905090565b600073ffffffffffffffffffffffffffffffffffffffff168373ffffffffffffffffffffffffffffffffffffffff161415610ee0576040517f08c379a0000000000000000000000000000000000000000000000000000000008152600401610ed79061206a565b60405180910390fd5b600073ffffffffffffffffffffffffffffffffffffffff168273ffffffffffffffffffffffffffffffffffffffff161415610f50576040517f08c379a0000000000000000000000000000000000000000000000000000000008152600401610f47906120fc565b60405180910390fd5b80600160008573ffffffffffffffffffffffffffffffffffffffff1673ffffffffffffffffffffffffffffffffffffffff16815260200190815260200160002060008473ffffffffffffffffffffffffffffffffffffffff1673ffffffffffffffffffffffffffffffffffffffff168152602001908152602001600020819055508173ffffffffffffffffffffffffffffffffffffffff168373ffffffffffffffffffffffffffffffffffffffff167f8c5be1e5ebec7d5bd14f71427d1e84f3dd0314c0f7b2291e5b200ac8c7c3b9258360405161102e9190611a42565b60405180910390a3505050565b60006110478484610cad565b90507fffffffffffffffffffffffffffffffffffffffffffffffffffffffffffffffff81146110c157818110156110b3576040517f08c379a00000000000000000000000000000000000000000000000000000000081526004016110aa90612168565b60405180910390fd5b6110c08484848403610e70565b5b50505050565b600073ffffffffffffffffffffffffffffffffffffffff168373ffffffffffffffffffffffffffffffffffffffff161415611137576040517f08c379a000000000000000000000000000000000000000000000000000000000815260040161112e906121fa565b60405180910390fd5b600073ffffffffffffffffffffffffffffffffffffffff168273ffffffffffffffffffffffffffffffffffffffff1614156111a7576040517f08c379a000000000000000000000000000000000000000000000000000000000815260040161119e9061228c565b60405180910390fd5b6111b283838361185f565b60008060008573ffffffffffffffffffffffffffffffffffffffff1673ffffffffffffffffffffffffffffffffffffffff16815260200190815260200160002054905081811015611238576040517f08c379a000000000000000000000000000000000000000000000000000000000815260040161122f9061231e565b60405180910390fd5b8181036000808673ffffffffffffffffffffffffffffffffffffffff1673ffffffffffffffffffffffffffffffffffffffff16815260200190815260200160002081905550816000808573ffffffffffffffffffffffffffffffffffffffff1673ffffffffffffffffffffffffffffffffffffffff16815260200190815260200160002060008282546112cb9190611c8e565b925050819055508273ffffffffffffffffffffffffffffffffffffffff168473ffffffffffffffffffffffffffffffffffffffff167fddf252ad1be2c89b69c2b068fc378daa952ba7f163c4a11628f55a4df523b3ef8460405161132f9190611a42565b60405180910390a3611342848484611864565b50505050565b600073ffffffffffffffffffffffffffffffffffffffff168273ffffffffffffffffffffffffffffffffffffffff1614156113b8576040517f08c379a00000000000000000000000000000000000000000000000000000000081526004016113af9061238a565b60405180910390fd5b6113c46000838361185f565b80600260008282546113d69190611c8e565b92505081905550806000808473ffffffffffffffffffffffffffffffffffffffff1673ffffffffffffffffffffffffffffffffffffffff168152602001908152602001600020600082825461142b9190611c8e565b925050819055508173ffffffffffffffffffffffffffffffffffffffff16600073ffffffffffffffffffffffffffffffffffffffff167fddf252ad1be2c89b69c2b068fc378daa952ba7f163c4a11628f55a4df523b3ef836040516114909190611a42565b60405180910390a36114a460008383611864565b5050565b6000600560009054906101000a900473ffffffffffffffffffffffffffffffffffffffff16905081600560006101000a81548173ffffffffffffffffffffffffffffffffffffffff021916908373ffffffffffffffffffffffffffffffffffffffff1602179055508173ffffffffffffffffffffffffffffffffffffffff168173ffffffffffffffffffffffffffffffffffffffff167f8be0079c531659141344cd1fd0a4f28419497f9722a3daafe3b4186f6b6457e060405160405180910390a35050565b6000818361157c91906123aa565b905092915050565b600081836115929190612404565b905092915050565b600081836115a89190611c8e565b905092915050565b600073ffffffffffffffffffffffffffffffffffffffff168273ffffffffffffffffffffffffffffffffffffffff161415611620576040517f08c379a0000000000000000000000000000000000000000000000000000000008152600401611617906124aa565b60405180910390fd5b61162c8260008361185f565b60008060008473ffffffffffffffffffffffffffffffffffffffff1673ffffffffffffffffffffffffffffffffffffffff168152602001908152602001600020549050818110156116b2576040517f08c379a00000000000000000000000000000000000000000000000000000000081526004016116a99061253c565b60405180910390fd5b8181036000808573ffffffffffffffffffffffffffffffffffffffff1673ffffffffffffffffffffffffffffffffffffffff1681526020019081526020016000208190555081600260008282546117099190612404565b92505081905550600073ffffffffffffffffffffffffffffffffffffffff168373ffffffffffffffffffffffffffffffffffffffff167fddf252ad1be2c89b69c2b068fc378daa952ba7f163c4a11628f55a4df523b3ef8460405161176e9190611a42565b60405180910390a361178283600084611864565b505050565b60008084116117cb576040517f08c379a00000000000000000000000000000000000000000000000000000000081526004016117c2906125ce565b60405180910390fd5b6000831180156117db5750600082115b61181a576040517f08c379a000000000000000000000000000000000000000000000000000000000815260040161181190611e54565b60405180910390fd5b600061182f838661156e90919063ffffffff16565b90506000611846868661159a90919063ffffffff16565b905080826118549190611ea3565b925050509392505050565b505050565b505050565b600081519050919050565b600082825260208201905092915050565b60005b838110156118a3578082015181840152602081019050611888565b838111156118b2576000848401525b50505050565b6000601f19601f8301169050919050565b60006118d482611869565b6118de8185611874565b93506118ee818560208601611885565b6118f7816118b8565b840191505092915050565b6000602082019050818103600083015261191c81846118c9565b905092915050565b600080fd5b600073ffffffffffffffffffffffffffffffffffffffff82169050919050565b600061195482611929565b9050919050565b61196481611949565b811461196f57600080fd5b50565b6000813590506119818161195b565b92915050565b6000819050919050565b61199a81611987565b81146119a557600080fd5b50565b6000813590506119b781611991565b92915050565b600080604083850312156119d4576119d3611924565b5b60006119e285828601611972565b92505060206119f3858286016119a8565b9150509250929050565b60008115159050919050565b611a12816119fd565b82525050565b6000602082019050611a2d6000830184611a09565b92915050565b611a3c81611987565b82525050565b6000602082019050611a576000830184611a33565b92915050565b600080600060608486031215611a7657611a75611924565b5b6000611a8486828701611972565b9350506020611a9586828701611972565b9250506040611aa6868287016119a8565b9150509250925092565b600060ff82169050919050565b611ac681611ab0565b82525050565b6000602082019050611ae16000830184611abd565b92915050565b600060208284031215611afd57611afc611924565b5b6000611b0b84828501611972565b91505092915050565b600080600060608486031215611b2d57611b2c611924565b5b6000611b3b868287016119a8565b9350506020611b4c868287016119a8565b9250506040611b5d868287016119a8565b9150509250925092565b611b7081611949565b82525050565b6000602082019050611b8b6000830184611b67565b92915050565b600060208284031215611ba757611ba6611924565b5b6000611bb5848285016119a8565b91505092915050565b60008060408385031215611bd557611bd4611924565b5b6000611be385828601611972565b9250506020611bf485828601611972565b9150509250929050565b7f4e487b7100000000000000000000000000000000000000000000000000000000600052602260045260246000fd5b60006002820490506001821680611c4557607f821691505b60208210811415611c5957611c58611bfe565b5b50919050565b7f4e487b7100000000000000000000000000000000000000000000000000000000600052601160045260246000fd5b6000611c9982611987565b9150611ca483611987565b9250827fffffffffffffffffffffffffffffffffffffffffffffffffffffffffffffffff03821115611cd957611cd8611c5f565b5b828201905092915050565b7f4f776e61626c653a2063616c6c6572206973206e6f7420746865206f776e6572600082015250565b6000611d1a602083611874565b9150611d2582611ce4565b602082019050919050565b60006020820190508181036000830152611d4981611d0d565b9050919050565b7f556e697377617056324c6962726172793a20494e53554646494349454e545f4f60008201527f55545055545f414d4f554e540000000000000000000000000000000000000000602082015250565b6000611dac602c83611874565b9150611db782611d50565b604082019050919050565b60006020820190508181036000830152611ddb81611d9f565b9050919050565b7f556e697377617056324c6962726172793a20494e53554646494349454e545f4c60008201527f4951554944495459000000000000000000000000000000000000000000000000602082015250565b6000611e3e602883611874565b9150611e4982611de2565b604082019050919050565b60006020820190508181036000830152611e6d81611e31565b9050919050565b7f4e487b7100000000000000000000000000000000000000000000000000000000600052601260045260246000fd5b6000611eae82611987565b9150611eb983611987565b925082611ec957611ec8611e74565b5b828204905092915050565b7f45524332303a2064656372656173656420616c6c6f77616e63652062656c6f7760008201527f207a65726f000000000000000000000000000000000000000000000000000000602082015250565b6000611f30602583611874565b9150611f3b82611ed4565b604082019050919050565b60006020820190508181036000830152611f5f81611f23565b9050919050565b7f4f776e61626c653a206e6577206f776e657220697320746865207a65726f206160008201527f6464726573730000000000000000000000000000000000000000000000000000602082015250565b6000611fc2602683611874565b9150611fcd82611f66565b604082019050919050565b60006020820190508181036000830152611ff181611fb5565b9050919050565b7f45524332303a20617070726f76652066726f6d20746865207a65726f2061646460008201527f7265737300000000000000000000000000000000000000000000000000000000602082015250565b6000612054602483611874565b915061205f82611ff8565b604082019050919050565b6000602082019050818103600083015261208381612047565b9050919050565b7f45524332303a20617070726f766520746f20746865207a65726f20616464726560008201527f7373000000000000000000000000000000000000000000000000000000000000602082015250565b60006120e6602283611874565b91506120f18261208a565b604082019050919050565b60006020820190508181036000830152612115816120d9565b9050919050565b7f45524332303a20696e73756666696369656e7420616c6c6f77616e6365000000600082015250565b6000612152601d83611874565b915061215d8261211c565b602082019050919050565b6000602082019050818103600083015261218181612145565b9050919050565b7f45524332303a207472616e736665722066726f6d20746865207a65726f20616460008201527f6472657373000000000000000000000000000000000000000000000000000000602082015250565b60006121e4602583611874565b91506121ef82612188565b604082019050919050565b60006020820190508181036000830152612213816121d7565b9050919050565b7f45524332303a207472616e7366657220746f20746865207a65726f206164647260008201527f6573730000000000000000000000000000000000000000000000000000000000602082015250565b6000612276602383611874565b91506122818261221a565b604082019050919050565b600060208201905081810360008301526122a581612269565b9050919050565b7f45524332303a207472616e7366657220616d6f756e742065786365656473206260008201527f616c616e63650000000000000000000000000000000000000000000000000000602082015250565b6000612308602683611874565b9150612313826122ac565b604082019050919050565b60006020820190508181036000830152612337816122fb565b9050919050565b7f45524332303a206d696e7420746f20746865207a65726f206164647265737300600082015250565b6000612374601f83611874565b915061237f8261233e565b602082019050919050565b600060208201905081810360008301526123a381612367565b9050919050565b60006123b582611987565b91506123c083611987565b9250817fffffffffffffffffffffffffffffffffffffffffffffffffffffffffffffffff04831182151516156123f9576123f8611c5f565b5b828202905092915050565b600061240f82611987565b915061241a83611987565b92508282101561242d5761242c611c5f565b5b828203905092915050565b7f45524332303a206275726e2066726f6d20746865207a65726f2061646472657360008201527f7300000000000000000000000000000000000000000000000000000000000000602082015250565b6000612494602183611874565b915061249f82612438565b604082019050919050565b600060208201905081810360008301526124c381612487565b9050919050565b7f45524332303a206275726e20616d6f756e7420657863656564732062616c616e60008201527f6365000000000000000000000000000000000000000000000000000000000000602082015250565b6000612526602283611874565b9150612531826124ca565b604082019050919050565b6000602082019050818103600083015261255581612519565b9050919050565b7f556e697377617056324c6962726172793a20494e53554646494349454e545f4960008201527f4e5055545f414d4f554e54000000000000000000000000000000000000000000602082015250565b60006125b8602b83611874565b91506125c38261255c565b604082019050919050565b600060208201905081810360008301526125e7816125ab565b905091905056fea2646970667358221220d980794d95c57caa5ba16fbebd84d2eaa7e0b8449a97583fb79a521248fbc5ce64736f6c634300080c0033",
  "immutableReferences": {},
  "source": "// SPDX-License-Identifier: MIT\npragma solidity ^0.8.0;\n\nimport \"@openzeppelin/contracts/token/ERC20/ERC20.sol\";\nimport \"@openzeppelin/contracts/access/Ownable.sol\";\nimport \"@openzeppelin/contracts/utils/math/SafeMath.sol\";\n\ncontract OkTestToken is ERC20(\"OKT Test Token\", \"OTT\"), Ownable {\n    using SafeMath for uint256;\n    //1  2\n    uint256 private exchangeState = 1;\n\n    //x * y = k\n    //1  x\n    uint256 public reserve0;\n\n    //2  y\n    uint256 public reserve1;\n\n    //\n    uint256 private unlocked = 1;\n\n    //   \n    modifier lock() {\n        require(unlocked == 1, \"Frequent operation\");\n        unlocked = 0;\n        _;\n        unlocked = 1;\n    }\n\n    constructor(uint256 _reserve0, uint256 _reserve1) {\n        reserve0 = _reserve0;\n        reserve1 = _reserve1;\n    }\n\n    //1000000000000    **        10    \n    uint256 _tTotal = 1 * 10**9 * 10**18;\n\n    //\n    function mint(address _to) public onlyOwner {\n        //\n        _mint(_to, _tTotal);\n    }\n\n    //\n    function burn(address account, uint256 amount) public onlyOwner {\n        _burn(account, amount);\n    }\n\n    //\n    function passMinterRole(address newOwner)\n        external\n        onlyOwner\n        returns (bool)\n    {\n        transferOwnership(newOwner);\n        return true;\n    }\n\n    //\n    function updateExchangeState(uint256 _state) public onlyOwner {\n        exchangeState = _state;\n    }\n\n    //inout   amountIn      reserveIn    reserveOut     \n    function getAmountOut(\n        uint256 amountIn,\n        uint256 reserveIn,\n        uint256 reserveOut\n    ) private pure returns (uint256 amountOut) {\n        require(amountIn > 0, \"UniswapV2Library: INSUFFICIENT_INPUT_AMOUNT\");\n        require(\n            reserveIn > 0 && reserveOut > 0,\n            \"UniswapV2Library: INSUFFICIENT_LIQUIDITY\"\n        );\n        uint256 numerator = amountIn.mul(reserveOut);\n        uint256 denominator = reserveIn.add(amountIn);\n        amountOut = numerator / denominator;\n    }\n\n    //out in ()\n    function getAmountIn(\n        uint256 amountOut,\n        uint256 reserveIn,\n        uint256 reserveOut\n    ) public pure returns (uint256 amountIn) {\n        require(amountOut > 0, \"UniswapV2Library: INSUFFICIENT_OUTPUT_AMOUNT\");\n        require(\n            reserveIn > 0 && reserveOut > 0,\n            \"UniswapV2Library: INSUFFICIENT_LIQUIDITY\"\n        );\n        uint256 numerator = reserveIn.mul(amountOut);\n        uint256 denominator = reserveOut.sub(amountOut);\n        amountIn = (numerator / denominator).add(1);\n    }\n\n    //AtokenBtoken\n    function swapExactTokensForTokens() external payable {\n        //\n        uint256 amounts = getAmountOut(msg.value, reserve0, reserve1);\n        //\n        // transfer(msg.sender, amounts);\n        _transfer(address(this), msg.sender, amounts);\n        reserve1 = reserve1.sub(amounts);\n    }\n}\n",
  "sourcePath": "/Users/hekang/Workspaces/dapp/w1_1_truffle/contracts/OkTestToken.sol",
  "compiler": {
    "name": "solc",
    "version": "0.8.12+commit.f00d7308.Emscripten.clang"
  },
  "schemaVersion": "3.4.1",
  "updatedAt": "2022-02-23T05:08:30.424Z",
  "networkType": "ethereum",
  "devdoc": {
    "kind": "dev",
    "methods": {
      "allowance(address,address)": {
        "details": "See {IERC20-allowance}."
      },
      "approve(address,uint256)": {
        "details": "See {IERC20-approve}. NOTE: If `amount` is the maximum `uint256`, the allowance is not updated on `transferFrom`. This is semantically equivalent to an infinite approval. Requirements: - `spender` cannot be the zero address."
      },
      "balanceOf(address)": {
        "details": "See {IERC20-balanceOf}."
      },
      "decimals()": {
        "details": "Returns the number of decimals used to get its user representation. For example, if `decimals` equals `2`, a balance of `505` tokens should be displayed to a user as `5.05` (`505 / 10 ** 2`). Tokens usually opt for a value of 18, imitating the relationship between Ether and Wei. This is the value {ERC20} uses, unless this function is overridden; NOTE: This information is only used for _display_ purposes: it in no way affects any of the arithmetic of the contract, including {IERC20-balanceOf} and {IERC20-transfer}."
      },
      "decreaseAllowance(address,uint256)": {
        "details": "Atomically decreases the allowance granted to `spender` by the caller. This is an alternative to {approve} that can be used as a mitigation for problems described in {IERC20-approve}. Emits an {Approval} event indicating the updated allowance. Requirements: - `spender` cannot be the zero address. - `spender` must have allowance for the caller of at least `subtractedValue`."
      },
      "increaseAllowance(address,uint256)": {
        "details": "Atomically increases the allowance granted to `spender` by the caller. This is an alternative to {approve} that can be used as a mitigation for problems described in {IERC20-approve}. Emits an {Approval} event indicating the updated allowance. Requirements: - `spender` cannot be the zero address."
      },
      "name()": {
        "details": "Returns the name of the token."
      },
      "owner()": {
        "details": "Returns the address of the current owner."
      },
      "renounceOwnership()": {
        "details": "Leaves the contract without owner. It will not be possible to call `onlyOwner` functions anymore. Can only be called by the current owner. NOTE: Renouncing ownership will leave the contract without an owner, thereby removing any functionality that is only available to the owner."
      },
      "symbol()": {
        "details": "Returns the symbol of the token, usually a shorter version of the name."
      },
      "totalSupply()": {
        "details": "See {IERC20-totalSupply}."
      },
      "transfer(address,uint256)": {
        "details": "See {IERC20-transfer}. Requirements: - `to` cannot be the zero address. - the caller must have a balance of at least `amount`."
      },
      "transferFrom(address,address,uint256)": {
        "details": "See {IERC20-transferFrom}. Emits an {Approval} event indicating the updated allowance. This is not required by the EIP. See the note at the beginning of {ERC20}. NOTE: Does not update the allowance if the current allowance is the maximum `uint256`. Requirements: - `from` and `to` cannot be the zero address. - `from` must have a balance of at least `amount`. - the caller must have allowance for ``from``'s tokens of at least `amount`."
      },
      "transferOwnership(address)": {
        "details": "Transfers ownership of the contract to a new account (`newOwner`). Can only be called by the current owner."
      }
    },
    "version": 1
  },
  "userdoc": {
    "kind": "user",
    "methods": {},
    "version": 1
  }
}