{
  "contracts/Score.sol": {
    "Score": {
      "abi": [
        {
          "inputs": [],
          "stateMutability": "nonpayable",
          "type": "constructor"
        },
        {
          "anonymous": false,
          "inputs": [
            {
              "indexed": true,
              "internalType": "address",
              "name": "sender",
              "type": "address"
            },
            {
              "indexed": true,
              "internalType": "address",
              "name": "newTeacher",
              "type": "address"
            },
            {
              "indexed": false,
              "internalType": "uint256",
              "name": "time",
              "type": "uint256"
            }
          ],
          "name": "AddTeacher",
          "type": "event"
        },
        {
          "anonymous": false,
          "inputs": [
            {
              "indexed": true,
              "internalType": "address",
              "name": "teacherAddr",
              "type": "address"
            },
            {
              "indexed": true,
              "internalType": "address",
              "name": "studentAddr",
              "type": "address"
            },
            {
              "indexed": false,
              "internalType": "uint256",
              "name": "score",
              "type": "uint256"
            },
            {
              "indexed": false,
              "internalType": "uint256",
              "name": "time",
              "type": "uint256"
            }
          ],
          "name": "StudentScore",
          "type": "event"
        },
        {
          "inputs": [
            {
              "internalType": "address",
              "name": "_addr",
              "type": "address"
            }
          ],
          "name": "addTeacher",
          "outputs": [],
          "stateMutability": "nonpayable",
          "type": "function"
        },
        {
          "inputs": [
            {
              "internalType": "address",
              "name": "_addr",
              "type": "address"
            },
            {
              "internalType": "uint256",
              "name": "_score",
              "type": "uint256"
            }
          ],
          "name": "setStudentScore",
          "outputs": [],
          "stateMutability": "nonpayable",
          "type": "function"
        },
        {
          "inputs": [
            {
              "internalType": "address",
              "name": "",
              "type": "address"
            }
          ],
          "name": "student",
          "outputs": [
            {
              "internalType": "uint256",
              "name": "",
              "type": "uint256"
            }
          ],
          "stateMutability": "view",
          "type": "function"
        },
        {
          "inputs": [
            {
              "internalType": "address",
              "name": "",
              "type": "address"
            }
          ],
          "name": "teacherAddr",
          "outputs": [
            {
              "internalType": "bool",
              "name": "",
              "type": "bool"
            }
          ],
          "stateMutability": "view",
          "type": "function"
        }
      ],
      "evm": {
        "bytecode": {
          "linkReferences": {},
          "object": "608060405234801561001057600080fd5b50336000908152600160208190526040909120805460ff191690911790556103278061003d6000396000f3fe608060405234801561001057600080fd5b506004361061004c5760003560e01c80632af38e34146100515780633bc6e3091461008957806359738b8d1461009e578063daadd00f146100b1575b600080fd5b61007461005f3660046102a5565b60016020526000908152604090205460ff1681565b60405190151581526020015b60405180910390f35b61009c6100973660046102a5565b6100df565b005b61009c6100ac3660046102c7565b61018f565b6100d16100bf3660046102a5565b60006020819052908152604090205481565b604051908152602001610080565b3260009081526001602052604090205460ff166101325760405162461bcd60e51b815260206004820152600c60248201526b6e6f20617574686f7269747960a01b60448201526064015b60405180910390fd5b6001600160a01b038116600081815260016020818152604092839020805460ff1916909217909155905142815233917f623f2f12277334cbba131e1bc37a1cca00bb01ffd1216afad46c2e41514563c0910160405180910390a350565b3260009081526001602052604090205460ff166101dd5760405162461bcd60e51b815260206004820152600c60248201526b6e6f20617574686f7269747960a01b6044820152606401610129565b606481111561022e5760405162461bcd60e51b815260206004820152601d60248201527f73636f72652063616e6e6f74206265206c657373207468616e203130300000006044820152606401610129565b6001600160a01b038216600081815260208181526040918290208490558151848152429181019190915233917f125549727220c2ff5d6a50430034a670f7a59d413a178a2c879fe824ae14ec55910160405180910390a35050565b80356001600160a01b03811681146102a057600080fd5b919050565b6000602082840312156102b757600080fd5b6102c082610289565b9392505050565b600080604083850312156102da57600080fd5b6102e383610289565b94602093909301359350505056fea26469706673582212200bae7d0998e888e0d5facc4ed78b3e92aa3c45db2a5b0923d4e099615bed802f64736f6c634300080c0033",
          "opcodes": "PUSH1 0x80 PUSH1 0x40 MSTORE CALLVALUE DUP1 ISZERO PUSH2 0x10 JUMPI PUSH1 0x0 DUP1 REVERT JUMPDEST POP CALLER PUSH1 0x0 SWAP1 DUP2 MSTORE PUSH1 0x1 PUSH1 0x20 DUP2 SWAP1 MSTORE PUSH1 0x40 SWAP1 SWAP2 KECCAK256 DUP1 SLOAD PUSH1 0xFF NOT AND SWAP1 SWAP2 OR SWAP1 SSTORE PUSH2 0x327 DUP1 PUSH2 0x3D PUSH1 0x0 CODECOPY PUSH1 0x0 RETURN INVALID PUSH1 0x80 PUSH1 0x40 MSTORE CALLVALUE DUP1 ISZERO PUSH2 0x10 JUMPI PUSH1 0x0 DUP1 REVERT JUMPDEST POP PUSH1 0x4 CALLDATASIZE LT PUSH2 0x4C JUMPI PUSH1 0x0 CALLDATALOAD PUSH1 0xE0 SHR DUP1 PUSH4 0x2AF38E34 EQ PUSH2 0x51 JUMPI DUP1 PUSH4 0x3BC6E309 EQ PUSH2 0x89 JUMPI DUP1 PUSH4 0x59738B8D EQ PUSH2 0x9E JUMPI DUP1 PUSH4 0xDAADD00F EQ PUSH2 0xB1 JUMPI JUMPDEST PUSH1 0x0 DUP1 REVERT JUMPDEST PUSH2 0x74 PUSH2 0x5F CALLDATASIZE PUSH1 0x4 PUSH2 0x2A5 JUMP JUMPDEST PUSH1 0x1 PUSH1 0x20 MSTORE PUSH1 0x0 SWAP1 DUP2 MSTORE PUSH1 0x40 SWAP1 KECCAK256 SLOAD PUSH1 0xFF AND DUP2 JUMP JUMPDEST PUSH1 0x40 MLOAD SWAP1 ISZERO ISZERO DUP2 MSTORE PUSH1 0x20 ADD JUMPDEST PUSH1 0x40 MLOAD DUP1 SWAP2 SUB SWAP1 RETURN JUMPDEST PUSH2 0x9C PUSH2 0x97 CALLDATASIZE PUSH1 0x4 PUSH2 0x2A5 JUMP JUMPDEST PUSH2 0xDF JUMP JUMPDEST STOP JUMPDEST PUSH2 0x9C PUSH2 0xAC CALLDATASIZE PUSH1 0x4 PUSH2 0x2C7 JUMP JUMPDEST PUSH2 0x18F JUMP JUMPDEST PUSH2 0xD1 PUSH2 0xBF CALLDATASIZE PUSH1 0x4 PUSH2 0x2A5 JUMP JUMPDEST PUSH1 0x0 PUSH1 0x20 DUP2 SWAP1 MSTORE SWAP1 DUP2 MSTORE PUSH1 0x40 SWAP1 KECCAK256 SLOAD DUP2 JUMP JUMPDEST PUSH1 0x40 MLOAD SWAP1 DUP2 MSTORE PUSH1 0x20 ADD PUSH2 0x80 JUMP JUMPDEST ORIGIN PUSH1 0x0 SWAP1 DUP2 MSTORE PUSH1 0x1 PUSH1 0x20 MSTORE PUSH1 0x40 SWAP1 KECCAK256 SLOAD PUSH1 0xFF AND PUSH2 0x132 JUMPI PUSH1 0x40 MLOAD PUSH3 0x461BCD PUSH1 0xE5 SHL DUP2 MSTORE PUSH1 0x20 PUSH1 0x4 DUP3 ADD MSTORE PUSH1 0xC PUSH1 0x24 DUP3 ADD MSTORE PUSH12 0x6E6F20617574686F72697479 PUSH1 0xA0 SHL PUSH1 0x44 DUP3 ADD MSTORE PUSH1 0x64 ADD JUMPDEST PUSH1 0x40 MLOAD DUP1 SWAP2 SUB SWAP1 REVERT JUMPDEST PUSH1 0x1 PUSH1 0x1 PUSH1 0xA0 SHL SUB DUP2 AND PUSH1 0x0 DUP2 DUP2 MSTORE PUSH1 0x1 PUSH1 0x20 DUP2 DUP2 MSTORE PUSH1 0x40 SWAP3 DUP4 SWAP1 KECCAK256 DUP1 SLOAD PUSH1 0xFF NOT AND SWAP1 SWAP3 OR SWAP1 SWAP2 SSTORE SWAP1 MLOAD TIMESTAMP DUP2 MSTORE CALLER SWAP2 PUSH32 0x623F2F12277334CBBA131E1BC37A1CCA00BB01FFD1216AFAD46C2E41514563C0 SWAP2 ADD PUSH1 0x40 MLOAD DUP1 SWAP2 SUB SWAP1 LOG3 POP JUMP JUMPDEST ORIGIN PUSH1 0x0 SWAP1 DUP2 MSTORE PUSH1 0x1 PUSH1 0x20 MSTORE PUSH1 0x40 SWAP1 KECCAK256 SLOAD PUSH1 0xFF AND PUSH2 0x1DD JUMPI PUSH1 0x40 MLOAD PUSH3 0x461BCD PUSH1 0xE5 SHL DUP2 MSTORE PUSH1 0x20 PUSH1 0x4 DUP3 ADD MSTORE PUSH1 0xC PUSH1 0x24 DUP3 ADD MSTORE PUSH12 0x6E6F20617574686F72697479 PUSH1 0xA0 SHL PUSH1 0x44 DUP3 ADD MSTORE PUSH1 0x64 ADD PUSH2 0x129 JUMP JUMPDEST PUSH1 0x64 DUP2 GT ISZERO PUSH2 0x22E JUMPI PUSH1 0x40 MLOAD PUSH3 0x461BCD PUSH1 0xE5 SHL DUP2 MSTORE PUSH1 0x20 PUSH1 0x4 DUP3 ADD MSTORE PUSH1 0x1D PUSH1 0x24 DUP3 ADD MSTORE PUSH32 0x73636F72652063616E6E6F74206265206C657373207468616E20313030000000 PUSH1 0x44 DUP3 ADD MSTORE PUSH1 0x64 ADD PUSH2 0x129 JUMP JUMPDEST PUSH1 0x1 PUSH1 0x1 PUSH1 0xA0 SHL SUB DUP3 AND PUSH1 0x0 DUP2 DUP2 MSTORE PUSH1 0x20 DUP2 DUP2 MSTORE PUSH1 0x40 SWAP2 DUP3 SWAP1 KECCAK256 DUP5 SWAP1 SSTORE DUP2 MLOAD DUP5 DUP2 MSTORE TIMESTAMP SWAP2 DUP2 ADD SWAP2 SWAP1 SWAP2 MSTORE CALLER SWAP2 PUSH32 0x125549727220C2FF5D6A50430034A670F7A59D413A178A2C879FE824AE14EC55 SWAP2 ADD PUSH1 0x40 MLOAD DUP1 SWAP2 SUB SWAP1 LOG3 POP POP JUMP JUMPDEST DUP1 CALLDATALOAD PUSH1 0x1 PUSH1 0x1 PUSH1 0xA0 SHL SUB DUP2 AND DUP2 EQ PUSH2 0x2A0 JUMPI PUSH1 0x0 DUP1 REVERT JUMPDEST SWAP2 SWAP1 POP JUMP JUMPDEST PUSH1 0x0 PUSH1 0x20 DUP3 DUP5 SUB SLT ISZERO PUSH2 0x2B7 JUMPI PUSH1 0x0 DUP1 REVERT JUMPDEST PUSH2 0x2C0 DUP3 PUSH2 0x289 JUMP JUMPDEST SWAP4 SWAP3 POP POP POP JUMP JUMPDEST PUSH1 0x0 DUP1 PUSH1 0x40 DUP4 DUP6 SUB SLT ISZERO PUSH2 0x2DA JUMPI PUSH1 0x0 DUP1 REVERT JUMPDEST PUSH2 0x2E3 DUP4 PUSH2 0x289 JUMP JUMPDEST SWAP5 PUSH1 0x20 SWAP4 SWAP1 SWAP4 ADD CALLDATALOAD SWAP4 POP POP POP JUMP INVALID LOG2 PUSH5 0x6970667358 0x22 SLT KECCAK256 SIGNEXTEND 0xAE PUSH30 0x998E888E0D5FACC4ED78B3E92AA3C45DB2A5B0923D4E099615BED802F64 PUSH20 0x6F6C634300080C00330000000000000000000000 "
        },
        "methodIdentifiers": {
          "addTeacher(address)": "3bc6e309",
          "setStudentScore(address,uint256)": "59738b8d",
          "student(address)": "daadd00f",
          "teacherAddr(address)": "2af38e34"
        }
      }
    }
  }
}