{
  "_format": "hh-sol-artifact-1",
  "contractName": "MyTokenMarket",
  "sourceName": "contracts/MyTokenMarket.sol",
  "abi": [
    {
      "inputs": [
        {
          "internalType": "address",
          "name": "_router",
          "type": "address"
        },
        {
          "internalType": "address",
          "name": "_token",
          "type": "address"
        },
        {
          "internalType": "address",
          "name": "_weth",
          "type": "address"
        },
        {
          "internalType": "address",
          "name": "_masterChef",
          "type": "address"
        }
      ],
      "stateMutability": "nonpayable",
      "type": "constructor"
    },
    {
      "inputs": [],
      "name": "buyToken",
      "outputs": [],
      "stateMutability": "payable",
      "type": "function"
    },
    {
      "inputs": [],
      "name": "masterChefAddress",
      "outputs": [
        {
          "internalType": "address",
          "name": "",
          "type": "address"
        }
      ],
      "stateMutability": "view",
      "type": "function"
    },
    {
      "inputs": [],
      "name": "myToken",
      "outputs": [
        {
          "internalType": "address",
          "name": "",
          "type": "address"
        }
      ],
      "stateMutability": "view",
      "type": "function"
    },
    {
      "inputs": [],
      "name": "routerAddress",
      "outputs": [
        {
          "internalType": "address",
          "name": "",
          "type": "address"
        }
      ],
      "stateMutability": "view",
      "type": "function"
    },
    {
      "inputs": [],
      "name": "wethAddress",
      "outputs": [
        {
          "internalType": "address",
          "name": "",
          "type": "address"
        }
      ],
      "stateMutability": "view",
      "type": "function"
    },
    {
      "inputs": [
        {
          "internalType": "uint256",
          "name": "_amounts",
          "type": "uint256"
        }
      ],
      "name": "withdraw",
      "outputs": [],
      "stateMutability": "nonpayable",
      "type": "function"
    }
  ],
  "bytecode": "0x608060405234801561001057600080fd5b506040516106fd3803806106fd83398101604081905261002f9161010b565b600080546001600160a01b03199081166001600160a01b03878116918217909355600180548316878516908117909155600280548416878616179055600380549093169385169390931790915560405163095ea7b360e01b81526004810191909152600019602482015263095ea7b3906044016020604051808303816000875af11580156100c1573d6000803e3d6000fd5b505050506040513d601f19601f820116820180604052508101906100e5919061015f565b5050505050610188565b80516001600160a01b038116811461010657600080fd5b919050565b6000806000806080858703121561012157600080fd5b61012a856100ef565b9350610138602086016100ef565b9250610146604086016100ef565b9150610154606086016100ef565b905092959194509250565b60006020828403121561017157600080fd5b8151801515811461018157600080fd5b9392505050565b610566806101976000396000f3fe6080604052600436106100555760003560e01c8063221e2e601461005a5780632e1a7d4d146100965780633268cc56146100b85780634f0e0ef3146100d8578063a4821719146100f8578063b8fcf93714610100575b600080fd5b34801561006657600080fd5b5060035461007a906001600160a01b031681565b6040516001600160a01b03909116815260200160405180910390f35b3480156100a257600080fd5b506100b66100b136600461039a565b610120565b005b3480156100c457600080fd5b5060005461007a906001600160a01b031681565b3480156100e457600080fd5b5060025461007a906001600160a01b031681565b6100b6610188565b34801561010c57600080fd5b5060015461007a906001600160a01b031681565b600354604051630441a3e760e41b815260006004820152602481018390526001600160a01b039091169063441a3e7090604401600060405180830381600087803b15801561016d57600080fd5b505af1158015610181573d6000803e3d6000fd5b5050505050565b604080516002808252606082018352600092602083019080368337505060025482519293506001600160a01b0316918391506000906101c9576101c96103c9565b6001600160a01b03928316602091820292909201015260018054835192169183919081106101f9576101f96103c9565b6001600160a01b03928316602091820292909201015260008054604051637ff36ab560e01b815291921690637ff36ab590349061024590859087903090640218711a00906004016103df565b60006040518083038185885af1158015610263573d6000803e3d6000fd5b50505050506040513d6000823e601f3d908101601f1916820160405261028c9190810190610449565b60015460035460405163095ea7b360e01b81526001600160a01b0391821660048201526000196024820152929350169063095ea7b3906044016020604051808303816000875af11580156102e4573d6000803e3d6000fd5b505050506040513d601f19601f820116820180604052508101906103089190610507565b5060035481516001600160a01b039091169063e2bbb1589060009084906001908110610336576103366103c9565b60200260200101516040518363ffffffff1660e01b8152600401610364929190918252602082015260400190565b600060405180830381600087803b15801561037e57600080fd5b505af1158015610392573d6000803e3d6000fd5b505050505050565b6000602082840312156103ac57600080fd5b5035919050565b634e487b7160e01b600052604160045260246000fd5b634e487b7160e01b600052603260045260246000fd5b600060808201868352602060808185015281875180845260a086019150828901935060005b818110156104295784516001600160a01b031683529383019391830191600101610404565b50506001600160a01b039690961660408501525050506060015292915050565b6000602080838503121561045c57600080fd5b825167ffffffffffffffff8082111561047457600080fd5b818501915085601f83011261048857600080fd5b81518181111561049a5761049a6103b3565b8060051b604051601f19603f830116810181811085821117156104bf576104bf6103b3565b6040529182528482019250838101850191888311156104dd57600080fd5b938501935b828510156104fb578451845293850193928501926104e2565b98975050505050505050565b60006020828403121561051957600080fd5b8151801515811461052957600080fd5b939250505056fea26469706673582212208a98e89d069ef181cea2f38b61117866ae560df00b8a36eb0245343d6a5f3efa64736f6c634300080c0033",
  "linkReferences": {},
  "deployedLinkReferences": {}
}