{
  "_format": "hh-sol-artifact-1",
  "contractName": "Vault",
  "sourceName": "contracts/Vault.sol",
  "abi": [
    {
      "inputs": [
        {
          "internalType": "address",
          "name": "_tokenAddr",
          "type": "address"
        }
      ],
      "stateMutability": "nonpayable",
      "type": "constructor"
    },
    {
      "inputs": [
        {
          "internalType": "uint256",
          "name": "_amount",
          "type": "uint256"
        }
      ],
      "name": "deposit",
      "outputs": [],
      "stateMutability": "nonpayable",
      "type": "function"
    },
    {
      "inputs": [],
      "name": "tokenAddr",
      "outputs": [
        {
          "internalType": "address",
          "name": "",
          "type": "address"
        }
      ],
      "stateMutability": "view",
      "type": "function"
    },
    {
      "inputs": [
        {
          "internalType": "address",
          "name": "",
          "type": "address"
        }
      ],
      "name": "userBalance",
      "outputs": [
        {
          "internalType": "uint256",
          "name": "",
          "type": "uint256"
        }
      ],
      "stateMutability": "view",
      "type": "function"
    },
    {
      "inputs": [
        {
          "internalType": "uint256",
          "name": "_amount",
          "type": "uint256"
        }
      ],
      "name": "withdraw",
      "outputs": [],
      "stateMutability": "nonpayable",
      "type": "function"
    }
  ],
  "bytecode": "0x608060405234801561001057600080fd5b5060405161048838038061048883398101604081905261002f91610054565b600080546001600160a01b0319166001600160a01b0392909216919091179055610084565b60006020828403121561006657600080fd5b81516001600160a01b038116811461007d57600080fd5b9392505050565b6103f5806100936000396000f3fe608060405234801561001057600080fd5b506004361061004c5760003560e01c80630103c92b146100515780632e1a7d4d146100845780635fbe4d1d14610099578063b6b55f25146100c4575b600080fd5b61007161005f36600461030f565b60016020526000908152604090205481565b6040519081526020015b60405180910390f35b61009761009236600461033f565b6100d7565b005b6000546100ac906001600160a01b031681565b6040516001600160a01b03909116815260200161007b565b6100976100d236600461033f565b61022b565b3360009081526001602052604090205481118015906100f65750600081115b6101515760405162461bcd60e51b815260206004820152602160248201527f536f7272792c20796f7572206372656469742069732072756e6e696e67206c6f6044820152607760f81b60648201526084015b60405180910390fd5b336000908152600160205260408120805483929061017090849061036e565b909155505060005460405163a9059cbb60e01b8152336004820152602481018390526001600160a01b039091169063a9059cbb906044016020604051808303816000875af11580156101c6573d6000803e3d6000fd5b505050506040513d601f19601f820116820180604052508101906101ea9190610385565b6102285760405162461bcd60e51b815260206004820152600f60248201526e151c985b9cd9995c8819985a5b1959608a1b6044820152606401610148565b50565b6000546040516323b872dd60e01b8152336004820152306024820152604481018390526001600160a01b03909116906323b872dd906064016020604051808303816000875af1158015610282573d6000803e3d6000fd5b505050506040513d601f19601f820116820180604052508101906102a69190610385565b6102e85760405162461bcd60e51b8152602060048201526013602482015272151c985b9cd9995c919c9bdb4819985a5b1959606a1b6044820152606401610148565b33600090815260016020526040812080548392906103079084906103a7565b909155505050565b60006020828403121561032157600080fd5b81356001600160a01b038116811461033857600080fd5b9392505050565b60006020828403121561035157600080fd5b5035919050565b634e487b7160e01b600052601160045260246000fd5b60008282101561038057610380610358565b500390565b60006020828403121561039757600080fd5b8151801515811461033857600080fd5b600082198211156103ba576103ba610358565b50019056fea26469706673582212200f3099d461d11bb0dc9281891cff308d0eb24a200447459a996d54ceb0d36ff664736f6c634300080c0033",
  "linkReferences": {},
  "deployedLinkReferences": {}
}