{
  "contracts/MasterChef.sol": {
    "MasterChef": {
      "abi": [
        {
          "inputs": [
            {
              "internalType": "contract SushiToken",
              "name": "_sushi",
              "type": "address"
            },
            {
              "internalType": "address",
              "name": "_devaddr",
              "type": "address"
            },
            {
              "internalType": "uint256",
              "name": "_sushiPerBlock",
              "type": "uint256"
            },
            {
              "internalType": "uint256",
              "name": "_startBlock",
              "type": "uint256"
            },
            {
              "internalType": "uint256",
              "name": "_bonusEndBlock",
              "type": "uint256"
            }
          ],
          "stateMutability": "nonpayable",
          "type": "constructor"
        },
        {
          "anonymous": false,
          "inputs": [
            {
              "indexed": true,
              "internalType": "address",
              "name": "user",
              "type": "address"
            },
            {
              "indexed": true,
              "internalType": "uint256",
              "name": "pid",
              "type": "uint256"
            },
            {
              "indexed": false,
              "internalType": "uint256",
              "name": "amount",
              "type": "uint256"
            }
          ],
          "name": "Deposit",
          "type": "event"
        },
        {
          "anonymous": false,
          "inputs": [
            {
              "indexed": true,
              "internalType": "address",
              "name": "user",
              "type": "address"
            },
            {
              "indexed": true,
              "internalType": "uint256",
              "name": "pid",
              "type": "uint256"
            },
            {
              "indexed": false,
              "internalType": "uint256",
              "name": "amount",
              "type": "uint256"
            }
          ],
          "name": "EmergencyWithdraw",
          "type": "event"
        },
        {
          "anonymous": false,
          "inputs": [
            {
              "indexed": true,
              "internalType": "address",
              "name": "previousOwner",
              "type": "address"
            },
            {
              "indexed": true,
              "internalType": "address",
              "name": "newOwner",
              "type": "address"
            }
          ],
          "name": "OwnershipTransferred",
          "type": "event"
        },
        {
          "anonymous": false,
          "inputs": [
            {
              "indexed": true,
              "internalType": "address",
              "name": "user",
              "type": "address"
            },
            {
              "indexed": true,
              "internalType": "uint256",
              "name": "pid",
              "type": "uint256"
            },
            {
              "indexed": false,
              "internalType": "uint256",
              "name": "amount",
              "type": "uint256"
            }
          ],
          "name": "Withdraw",
          "type": "event"
        },
        {
          "inputs": [],
          "name": "BONUS_MULTIPLIER",
          "outputs": [
            {
              "internalType": "uint256",
              "name": "",
              "type": "uint256"
            }
          ],
          "stateMutability": "view",
          "type": "function"
        },
        {
          "inputs": [
            {
              "internalType": "uint256",
              "name": "_allocPoint",
              "type": "uint256"
            },
            {
              "internalType": "contract IERC20",
              "name": "_lpToken",
              "type": "address"
            },
            {
              "internalType": "bool",
              "name": "_withUpdate",
              "type": "bool"
            }
          ],
          "name": "add",
          "outputs": [],
          "stateMutability": "nonpayable",
          "type": "function"
        },
        {
          "inputs": [],
          "name": "bonusEndBlock",
          "outputs": [
            {
              "internalType": "uint256",
              "name": "",
              "type": "uint256"
            }
          ],
          "stateMutability": "view",
          "type": "function"
        },
        {
          "inputs": [
            {
              "internalType": "uint256",
              "name": "_pid",
              "type": "uint256"
            },
            {
              "internalType": "uint256",
              "name": "_amount",
              "type": "uint256"
            }
          ],
          "name": "deposit",
          "outputs": [],
          "stateMutability": "nonpayable",
          "type": "function"
        },
        {
          "inputs": [
            {
              "internalType": "address",
              "name": "_devaddr",
              "type": "address"
            }
          ],
          "name": "dev",
          "outputs": [],
          "stateMutability": "nonpayable",
          "type": "function"
        },
        {
          "inputs": [],
          "name": "devaddr",
          "outputs": [
            {
              "internalType": "address",
              "name": "",
              "type": "address"
            }
          ],
          "stateMutability": "view",
          "type": "function"
        },
        {
          "inputs": [
            {
              "internalType": "uint256",
              "name": "_pid",
              "type": "uint256"
            }
          ],
          "name": "emergencyWithdraw",
          "outputs": [],
          "stateMutability": "nonpayable",
          "type": "function"
        },
        {
          "inputs": [
            {
              "internalType": "uint256",
              "name": "_from",
              "type": "uint256"
            },
            {
              "internalType": "uint256",
              "name": "_to",
              "type": "uint256"
            }
          ],
          "name": "getMultiplier",
          "outputs": [
            {
              "internalType": "uint256",
              "name": "",
              "type": "uint256"
            }
          ],
          "stateMutability": "view",
          "type": "function"
        },
        {
          "inputs": [],
          "name": "massUpdatePools",
          "outputs": [],
          "stateMutability": "nonpayable",
          "type": "function"
        },
        {
          "inputs": [
            {
              "internalType": "uint256",
              "name": "_pid",
              "type": "uint256"
            }
          ],
          "name": "migrate",
          "outputs": [],
          "stateMutability": "nonpayable",
          "type": "function"
        },
        {
          "inputs": [],
          "name": "migrator",
          "outputs": [
            {
              "internalType": "contract IMigratorChef",
              "name": "",
              "type": "address"
            }
          ],
          "stateMutability": "view",
          "type": "function"
        },
        {
          "inputs": [],
          "name": "owner",
          "outputs": [
            {
              "internalType": "address",
              "name": "",
              "type": "address"
            }
          ],
          "stateMutability": "view",
          "type": "function"
        },
        {
          "inputs": [
            {
              "internalType": "uint256",
              "name": "_pid",
              "type": "uint256"
            },
            {
              "internalType": "address",
              "name": "_user",
              "type": "address"
            }
          ],
          "name": "pendingSushi",
          "outputs": [
            {
              "internalType": "uint256",
              "name": "",
              "type": "uint256"
            }
          ],
          "stateMutability": "view",
          "type": "function"
        },
        {
          "inputs": [
            {
              "internalType": "uint256",
              "name": "",
              "type": "uint256"
            }
          ],
          "name": "poolInfo",
          "outputs": [
            {
              "internalType": "contract IERC20",
              "name": "lpToken",
              "type": "address"
            },
            {
              "internalType": "uint256",
              "name": "allocPoint",
              "type": "uint256"
            },
            {
              "internalType": "uint256",
              "name": "lastRewardBlock",
              "type": "uint256"
            },
            {
              "internalType": "uint256",
              "name": "accSushiPerShare",
              "type": "uint256"
            }
          ],
          "stateMutability": "view",
          "type": "function"
        },
        {
          "inputs": [],
          "name": "poolLength",
          "outputs": [
            {
              "internalType": "uint256",
              "name": "",
              "type": "uint256"
            }
          ],
          "stateMutability": "view",
          "type": "function"
        },
        {
          "inputs": [],
          "name": "renounceOwnership",
          "outputs": [],
          "stateMutability": "nonpayable",
          "type": "function"
        },
        {
          "inputs": [
            {
              "internalType": "uint256",
              "name": "_pid",
              "type": "uint256"
            },
            {
              "internalType": "uint256",
              "name": "_allocPoint",
              "type": "uint256"
            },
            {
              "internalType": "bool",
              "name": "_withUpdate",
              "type": "bool"
            }
          ],
          "name": "set",
          "outputs": [],
          "stateMutability": "nonpayable",
          "type": "function"
        },
        {
          "inputs": [
            {
              "internalType": "contract IMigratorChef",
              "name": "_migrator",
              "type": "address"
            }
          ],
          "name": "setMigrator",
          "outputs": [],
          "stateMutability": "nonpayable",
          "type": "function"
        },
        {
          "inputs": [],
          "name": "startBlock",
          "outputs": [
            {
              "internalType": "uint256",
              "name": "",
              "type": "uint256"
            }
          ],
          "stateMutability": "view",
          "type": "function"
        },
        {
          "inputs": [],
          "name": "sushi",
          "outputs": [
            {
              "internalType": "contract SushiToken",
              "name": "",
              "type": "address"
            }
          ],
          "stateMutability": "view",
          "type": "function"
        },
        {
          "inputs": [],
          "name": "sushiPerBlock",
          "outputs": [
            {
              "internalType": "uint256",
              "name": "",
              "type": "uint256"
            }
          ],
          "stateMutability": "view",
          "type": "function"
        },
        {
          "inputs": [],
          "name": "totalAllocPoint",
          "outputs": [
            {
              "internalType": "uint256",
              "name": "",
              "type": "uint256"
            }
          ],
          "stateMutability": "view",
          "type": "function"
        },
        {
          "inputs": [
            {
              "internalType": "address",
              "name": "newOwner",
              "type": "address"
            }
          ],
          "name": "transferOwnership",
          "outputs": [],
          "stateMutability": "nonpayable",
          "type": "function"
        },
        {
          "inputs": [
            {
              "internalType": "uint256",
              "name": "_pid",
              "type": "uint256"
            }
          ],
          "name": "updatePool",
          "outputs": [],
          "stateMutability": "nonpayable",
          "type": "function"
        },
        {
          "inputs": [
            {
              "internalType": "uint256",
              "name": "",
              "type": "uint256"
            },
            {
              "internalType": "address",
              "name": "",
              "type": "address"
            }
          ],
          "name": "userInfo",
          "outputs": [
            {
              "internalType": "uint256",
              "name": "amount",
              "type": "uint256"
            },
            {
              "internalType": "uint256",
              "name": "rewardDebt",
              "type": "uint256"
            }
          ],
          "stateMutability": "view",
          "type": "function"
        },
        {
          "inputs": [
            {
              "internalType": "uint256",
              "name": "_pid",
              "type": "uint256"
            },
            {
              "internalType": "uint256",
              "name": "_amount",
              "type": "uint256"
            }
          ],
          "name": "withdraw",
          "outputs": [],
          "stateMutability": "nonpayable",
          "type": "function"
        }
      ],
      "evm": {
        "bytecode": {
          "linkReferences": {},
          "object": "608060405260006008553480156200001657600080fd5b5060405162001af138038062001af18339810160408190526200003991620000ec565b620000443362000083565b600180546001600160a01b039687166001600160a01b031991821617909155600280549590961694169390931790935560045560035560095562000144565b600080546001600160a01b038381166001600160a01b0319831681178455604051919092169283917f8be0079c531659141344cd1fd0a4f28419497f9722a3daafe3b4186f6b6457e09190a35050565b6001600160a01b0381168114620000e957600080fd5b50565b600080600080600060a086880312156200010557600080fd5b85516200011281620000d3565b60208701519095506200012581620000d3565b6040870151606088015160809098015196999198509695945092505050565b61199d80620001546000396000f3fe608060405234801561001057600080fd5b506004361061018e5760003560e01c8063630b5ba1116100de5780638da5cb5b11610097578063b0bcf42a11610071578063b0bcf42a14610370578063d49e77cd14610379578063e2bbb1581461038c578063f2fde38b1461039f57600080fd5b80638da5cb5b146103055780638dbb1e3a1461031657806393f1a40b1461032957600080fd5b8063630b5ba1146102b457806364482f79146102bc578063715018a6146102cf5780637cd07e47146102d75780638aa28550146102ea5780638d88a90e146102f257600080fd5b80631eaaa0451161014b578063454b060811610125578063454b06081461027257806348cd4cb11461028557806351eb05a61461028e5780635312ea8e146102a157600080fd5b80631eaaa0451461023757806323cf31181461024c578063441a3e701461025f57600080fd5b8063081e3eda146101935780630a087903146101aa5780631526fe27146101d557806317caf6f114610212578063195426ec1461021b5780631aed65531461022e575b600080fd5b6006545b6040519081526020015b60405180910390f35b6001546101bd906001600160a01b031681565b6040516001600160a01b0390911681526020016101a1565b6101e86101e3366004611692565b6103b2565b604080516001600160a01b03909516855260208501939093529183015260608201526080016101a1565b61019760085481565b6101976102293660046116c0565b6103f6565b61019760035481565b61024a6102453660046116fe565b610567565b005b61024a61025a366004611740565b6106bd565b61024a61026d36600461175d565b610709565b61024a610280366004611692565b610851565b61019760095481565b61024a61029c366004611692565b610a8c565b61024a6102af366004611692565b610cb8565b61024a610d5a565b61024a6102ca36600461177f565b610d85565b61024a610e34565b6005546101bd906001600160a01b031681565b610197600a81565b61024a610300366004611740565b610e6a565b6000546001600160a01b03166101bd565b61019761032436600461175d565b610ed2565b61035b6103373660046116c0565b60076020908152600092835260408084209091529082529020805460019091015482565b604080519283526020830191909152016101a1565b61019760045481565b6002546101bd906001600160a01b031681565b61024a61039a36600461175d565b610f38565b61024a6103ad366004611740565b611043565b600681815481106103c257600080fd5b600091825260209091206004909102018054600182015460028301546003909301546001600160a01b039092169350919084565b6000806006848154811061040c5761040c6117ad565b600091825260208083208784526007825260408085206001600160a01b038981168752935280852060049485029092016003810154815492516370a0823160e01b8152309681019690965290965091949193919216906370a0823190602401602060405180830381865afa158015610488573d6000803e3d6000fd5b505050506040513d601f19601f820116820180604052508101906104ac91906117c3565b90508360020154431180156104c057508015155b1561052c5760006104d5856002015443610ed2565b9050600061050860085461050288600101546104fc600454876110de90919063ffffffff16565b906110de565b906110f1565b9050610527610520846105028464e8d4a510006110de565b85906110fd565b935050505b61055a836001015461055464e8d4a510006105028688600001546110de90919063ffffffff16565b90611109565b9450505050505b92915050565b6000546001600160a01b0316331461059a5760405162461bcd60e51b8152600401610591906117dc565b60405180910390fd5b80156105a8576105a8610d5a565b600060095443116105bb576009546105bd565b435b6008549091506105cd90856110fd565b600855604080516080810182526001600160a01b0394851681526020810195865290810191825260006060820181815260068054600181018255925291517ff652222313e28459528d920b65115c16c04f3efc82aaedc97be59f3f377c0d3f600490920291820180546001600160a01b031916919096161790945593517ff652222313e28459528d920b65115c16c04f3efc82aaedc97be59f3f377c0d40840155517ff652222313e28459528d920b65115c16c04f3efc82aaedc97be59f3f377c0d418301555090517ff652222313e28459528d920b65115c16c04f3efc82aaedc97be59f3f377c0d4290910155565b6000546001600160a01b031633146106e75760405162461bcd60e51b8152600401610591906117dc565b600580546001600160a01b0319166001600160a01b0392909216919091179055565b60006006838154811061071e5761071e6117ad565b60009182526020808320868452600782526040808520338652909252922080546004909202909201925083111561078c5760405162461bcd60e51b81526020600482015260126024820152711dda5d1a191c985dce881b9bdd0819dbdbd960721b6044820152606401610591565b61079584610a8c565b60006107c3826001015461055464e8d4a51000610502876003015487600001546110de90919063ffffffff16565b90506107cf3382611115565b81546107db9085611109565b80835560038401546107f89164e8d4a510009161050291906110de565b60018301558254610813906001600160a01b03163386611248565b604051848152859033907ff279e6a1f5e320cca91135676d9cb6e44ca8a08c0b88342bcdb1144f6511b5689060200160405180910390a35050505050565b6005546001600160a01b03166108a05760405162461bcd60e51b815260206004820152601460248201527336b4b3b930ba329d1037379036b4b3b930ba37b960611b6044820152606401610591565b6000600682815481106108b5576108b56117ad565b60009182526020822060049182020180546040516370a0823160e01b815230938101939093529093506001600160a01b0316919082906370a0823190602401602060405180830381865afa158015610911573d6000803e3d6000fd5b505050506040513d601f19601f8201168201806040525081019061093591906117c3565b600554909150610952906001600160a01b038481169116836112ab565b60055460405163ce5494bb60e01b81526001600160a01b038481166004830152600092169063ce5494bb906024016020604051808303816000875af115801561099f573d6000803e3d6000fd5b505050506040513d601f19601f820116820180604052508101906109c39190611811565b6040516370a0823160e01b81523060048201529091506001600160a01b038216906370a0823190602401602060405180830381865afa158015610a0a573d6000803e3d6000fd5b505050506040513d601f19601f82011682018060405250810190610a2e91906117c3565b8214610a6b5760405162461bcd60e51b815260206004820152600c60248201526b1b5a59dc985d194e8818985960a21b6044820152606401610591565b83546001600160a01b0319166001600160a01b039190911617909255505050565b600060068281548110610aa157610aa16117ad565b9060005260206000209060040201905080600201544311610ac0575050565b80546040516370a0823160e01b81523060048201526000916001600160a01b0316906370a0823190602401602060405180830381865afa158015610b08573d6000803e3d6000fd5b505050506040513d601f19601f82011682018060405250810190610b2c91906117c3565b905080610b3e57504360029091015550565b6000610b4e836002015443610ed2565b90506000610b7560085461050286600101546104fc600454876110de90919063ffffffff16565b6001546002549192506001600160a01b03908116916340c10f199116610b9c84600a6110f1565b6040516001600160e01b031960e085901b1681526001600160a01b03909216600483015260248201526044016020604051808303816000875af1158015610be7573d6000803e3d6000fd5b505050506040513d601f19601f82011682018060405250810190610c0b919061182e565b506001546040516340c10f1960e01b8152306004820152602481018390526001600160a01b03909116906340c10f19906044016020604051808303816000875af1158015610c5d573d6000803e3d6000fd5b505050506040513d601f19601f82011682018060405250810190610c81919061182e565b50610ca3610c98846105028464e8d4a510006110de565b6003860154906110fd565b60038501555050436002909201919091555050565b600060068281548110610ccd57610ccd6117ad565b60009182526020808320858452600782526040808520338087529352909320805460049093029093018054909450610d12926001600160a01b03919091169190611248565b8054604051908152839033907fbb757047c2b5f3974fe26b7c10f732e7bce710b0952a71082702781e62ae05959060200160405180910390a360008082556001909101555050565b60065460005b81811015610d8157610d7181610a8c565b610d7a81611861565b9050610d60565b5050565b6000546001600160a01b03163314610daf5760405162461bcd60e51b8152600401610591906117dc565b8015610dbd57610dbd610d5a565b610e0082610dfa60068681548110610dd757610dd76117ad565b90600052602060002090600402016001015460085461110990919063ffffffff16565b906110fd565b6008819055508160068481548110610e1a57610e1a6117ad565b906000526020600020906004020160010181905550505050565b6000546001600160a01b03163314610e5e5760405162461bcd60e51b8152600401610591906117dc565b610e6860006113c0565b565b6002546001600160a01b03163314610eb05760405162461bcd60e51b81526020600482015260096024820152686465763a207775743f60b81b6044820152606401610591565b600280546001600160a01b0319166001600160a01b0392909216919091179055565b60006003548211610ef357610eec600a6104fc8486611109565b9050610561565b6003548310610f0657610eec8284611109565b610eec610f1e6003548461110990919063ffffffff16565b610dfa600a6104fc8760035461110990919063ffffffff16565b600060068381548110610f4d57610f4d6117ad565b60009182526020808320868452600782526040808520338652909252922060049091029091019150610f7e84610a8c565b805415610fc1576000610fb3826001015461055464e8d4a51000610502876003015487600001546110de90919063ffffffff16565b9050610fbf3382611115565b505b8154610fd8906001600160a01b0316333086611410565b8054610fe490846110fd565b80825560038301546110019164e8d4a510009161050291906110de565b6001820155604051838152849033907f90890809c654f11d6e72a28fa60149770a0d11ec6c92319d6ceb2bb0a4ea1a159060200160405180910390a350505050565b6000546001600160a01b0316331461106d5760405162461bcd60e51b8152600401610591906117dc565b6001600160a01b0381166110d25760405162461bcd60e51b815260206004820152602660248201527f4f776e61626c653a206e6577206f776e657220697320746865207a65726f206160448201526564647265737360d01b6064820152608401610591565b6110db816113c0565b50565b60006110ea828461187c565b9392505050565b60006110ea828461189b565b60006110ea82846118bd565b60006110ea82846118d5565b6001546040516370a0823160e01b81523060048201526000916001600160a01b0316906370a0823190602401602060405180830381865afa15801561115e573d6000803e3d6000fd5b505050506040513d601f19601f8201168201806040525081019061118291906117c3565b90508082111561120a5760015460405163a9059cbb60e01b81526001600160a01b038581166004830152602482018490529091169063a9059cbb906044015b6020604051808303816000875af11580156111e0573d6000803e3d6000fd5b505050506040513d601f19601f82011682018060405250810190611204919061182e565b50505050565b60015460405163a9059cbb60e01b81526001600160a01b038581166004830152602482018590529091169063a9059cbb906044016111c1565b505050565b6040516001600160a01b03831660248201526044810182905261124390849063a9059cbb60e01b906064015b60408051601f198184030181529190526020810180516001600160e01b03166001600160e01b031990931692909217909152611448565b8015806113255750604051636eb1769f60e11b81523060048201526001600160a01b03838116602483015284169063dd62ed3e90604401602060405180830381865afa1580156112ff573d6000803e3d6000fd5b505050506040513d601f19601f8201168201806040525081019061132391906117c3565b155b6113905760405162461bcd60e51b815260206004820152603660248201527f5361666545524332303a20617070726f76652066726f6d206e6f6e2d7a65726f60448201527520746f206e6f6e2d7a65726f20616c6c6f77616e636560501b6064820152608401610591565b6040516001600160a01b03831660248201526044810182905261124390849063095ea7b360e01b90606401611274565b600080546001600160a01b038381166001600160a01b0319831681178455604051919092169283917f8be0079c531659141344cd1fd0a4f28419497f9722a3daafe3b4186f6b6457e09190a35050565b6040516001600160a01b03808516602483015283166044820152606481018290526112049085906323b872dd60e01b90608401611274565b600061149d826040518060400160405280602081526020017f5361666545524332303a206c6f772d6c6576656c2063616c6c206661696c6564815250856001600160a01b031661151a9092919063ffffffff16565b80519091501561124357808060200190518101906114bb919061182e565b6112435760405162461bcd60e51b815260206004820152602a60248201527f5361666545524332303a204552433230206f7065726174696f6e20646964206e6044820152691bdd081cdd58d8d9595960b21b6064820152608401610591565b60606115298484600085611531565b949350505050565b6060824710156115925760405162461bcd60e51b815260206004820152602660248201527f416464726573733a20696e73756666696369656e742062616c616e636520666f6044820152651c8818d85b1b60d21b6064820152608401610591565b843b6115e05760405162461bcd60e51b815260206004820152601d60248201527f416464726573733a2063616c6c20746f206e6f6e2d636f6e74726163740000006044820152606401610591565b600080866001600160a01b031685876040516115fc9190611918565b60006040518083038185875af1925050503d8060008114611639576040519150601f19603f3d011682016040523d82523d6000602084013e61163e565b606091505b509150915061164e828286611659565b979650505050505050565b606083156116685750816110ea565b8251156116785782518084602001fd5b8160405162461bcd60e51b81526004016105919190611934565b6000602082840312156116a457600080fd5b5035919050565b6001600160a01b03811681146110db57600080fd5b600080604083850312156116d357600080fd5b8235915060208301356116e5816116ab565b809150509250929050565b80151581146110db57600080fd5b60008060006060848603121561171357600080fd5b833592506020840135611725816116ab565b91506040840135611735816116f0565b809150509250925092565b60006020828403121561175257600080fd5b81356110ea816116ab565b6000806040838503121561177057600080fd5b50508035926020909101359150565b60008060006060848603121561179457600080fd5b83359250602084013591506040840135611735816116f0565b634e487b7160e01b600052603260045260246000fd5b6000602082840312156117d557600080fd5b5051919050565b6020808252818101527f4f776e61626c653a2063616c6c6572206973206e6f7420746865206f776e6572604082015260600190565b60006020828403121561182357600080fd5b81516110ea816116ab565b60006020828403121561184057600080fd5b81516110ea816116f0565b634e487b7160e01b600052601160045260246000fd5b60006000198214156118755761187561184b565b5060010190565b60008160001904831182151516156118965761189661184b565b500290565b6000826118b857634e487b7160e01b600052601260045260246000fd5b500490565b600082198211156118d0576118d061184b565b500190565b6000828210156118e7576118e761184b565b500390565b60005b838110156119075781810151838201526020016118ef565b838111156112045750506000910152565b6000825161192a8184602087016118ec565b9190910192915050565b60208152600082518060208401526119538160408501602087016118ec565b601f01601f1916919091016040019291505056fea26469706673582212203e66ced689348881fba6aa9d33222f8a8867ab14e0bf1553bbad38f897d50f1c64736f6c634300080c0033",
          "opcodes": "PUSH1 0x80 PUSH1 0x40 MSTORE PUSH1 0x0 PUSH1 0x8 SSTORE CALLVALUE DUP1 ISZERO PUSH3 0x16 JUMPI PUSH1 0x0 DUP1 REVERT JUMPDEST POP PUSH1 0x40 MLOAD PUSH3 0x1AF1 CODESIZE SUB DUP1 PUSH3 0x1AF1 DUP4 CODECOPY DUP2 ADD PUSH1 0x40 DUP2 SWAP1 MSTORE PUSH3 0x39 SWAP2 PUSH3 0xEC JUMP JUMPDEST PUSH3 0x44 CALLER PUSH3 0x83 JUMP JUMPDEST PUSH1 0x1 DUP1 SLOAD PUSH1 0x1 PUSH1 0x1 PUSH1 0xA0 SHL SUB SWAP7 DUP8 AND PUSH1 0x1 PUSH1 0x1 PUSH1 0xA0 SHL SUB NOT SWAP2 DUP3 AND OR SWAP1 SWAP2 SSTORE PUSH1 0x2 DUP1 SLOAD SWAP6 SWAP1 SWAP7 AND SWAP5 AND SWAP4 SWAP1 SWAP4 OR SWAP1 SWAP4 SSTORE PUSH1 0x4 SSTORE PUSH1 0x3 SSTORE PUSH1 0x9 SSTORE PUSH3 0x144 JUMP JUMPDEST PUSH1 0x0 DUP1 SLOAD PUSH1 0x1 PUSH1 0x1 PUSH1 0xA0 SHL SUB DUP4 DUP2 AND PUSH1 0x1 PUSH1 0x1 PUSH1 0xA0 SHL SUB NOT DUP4 AND DUP2 OR DUP5 SSTORE PUSH1 0x40 MLOAD SWAP2 SWAP1 SWAP3 AND SWAP3 DUP4 SWAP2 PUSH32 0x8BE0079C531659141344CD1FD0A4F28419497F9722A3DAAFE3B4186F6B6457E0 SWAP2 SWAP1 LOG3 POP POP JUMP JUMPDEST PUSH1 0x1 PUSH1 0x1 PUSH1 0xA0 SHL SUB DUP2 AND DUP2 EQ PUSH3 0xE9 JUMPI PUSH1 0x0 DUP1 REVERT JUMPDEST POP JUMP JUMPDEST PUSH1 0x0 DUP1 PUSH1 0x0 DUP1 PUSH1 0x0 PUSH1 0xA0 DUP7 DUP9 SUB SLT ISZERO PUSH3 0x105 JUMPI PUSH1 0x0 DUP1 REVERT JUMPDEST DUP6 MLOAD PUSH3 0x112 DUP2 PUSH3 0xD3 JUMP JUMPDEST PUSH1 0x20 DUP8 ADD MLOAD SWAP1 SWAP6 POP PUSH3 0x125 DUP2 PUSH3 0xD3 JUMP JUMPDEST PUSH1 0x40 DUP8 ADD MLOAD PUSH1 0x60 DUP9 ADD MLOAD PUSH1 0x80 SWAP1 SWAP9 ADD MLOAD SWAP7 SWAP10 SWAP2 SWAP9 POP SWAP7 SWAP6 SWAP5 POP SWAP3 POP POP POP JUMP JUMPDEST PUSH2 0x199D DUP1 PUSH3 0x154 PUSH1 0x0 CODECOPY PUSH1 0x0 RETURN INVALID PUSH1 0x80 PUSH1 0x40 MSTORE CALLVALUE DUP1 ISZERO PUSH2 0x10 JUMPI PUSH1 0x0 DUP1 REVERT JUMPDEST POP PUSH1 0x4 CALLDATASIZE LT PUSH2 0x18E JUMPI PUSH1 0x0 CALLDATALOAD PUSH1 0xE0 SHR DUP1 PUSH4 0x630B5BA1 GT PUSH2 0xDE JUMPI DUP1 PUSH4 0x8DA5CB5B GT PUSH2 0x97 JUMPI DUP1 PUSH4 0xB0BCF42A GT PUSH2 0x71 JUMPI DUP1 PUSH4 0xB0BCF42A EQ PUSH2 0x370 JUMPI DUP1 PUSH4 0xD49E77CD EQ PUSH2 0x379 JUMPI DUP1 PUSH4 0xE2BBB158 EQ PUSH2 0x38C JUMPI DUP1 PUSH4 0xF2FDE38B EQ PUSH2 0x39F JUMPI PUSH1 0x0 DUP1 REVERT JUMPDEST DUP1 PUSH4 0x8DA5CB5B EQ PUSH2 0x305 JUMPI DUP1 PUSH4 0x8DBB1E3A EQ PUSH2 0x316 JUMPI DUP1 PUSH4 0x93F1A40B EQ PUSH2 0x329 JUMPI PUSH1 0x0 DUP1 REVERT JUMPDEST DUP1 PUSH4 0x630B5BA1 EQ PUSH2 0x2B4 JUMPI DUP1 PUSH4 0x64482F79 EQ PUSH2 0x2BC JUMPI DUP1 PUSH4 0x715018A6 EQ PUSH2 0x2CF JUMPI DUP1 PUSH4 0x7CD07E47 EQ PUSH2 0x2D7 JUMPI DUP1 PUSH4 0x8AA28550 EQ PUSH2 0x2EA JUMPI DUP1 PUSH4 0x8D88A90E EQ PUSH2 0x2F2 JUMPI PUSH1 0x0 DUP1 REVERT JUMPDEST DUP1 PUSH4 0x1EAAA045 GT PUSH2 0x14B JUMPI DUP1 PUSH4 0x454B0608 GT PUSH2 0x125 JUMPI DUP1 PUSH4 0x454B0608 EQ PUSH2 0x272 JUMPI DUP1 PUSH4 0x48CD4CB1 EQ PUSH2 0x285 JUMPI DUP1 PUSH4 0x51EB05A6 EQ PUSH2 0x28E JUMPI DUP1 PUSH4 0x5312EA8E EQ PUSH2 0x2A1 JUMPI PUSH1 0x0 DUP1 REVERT JUMPDEST DUP1 PUSH4 0x1EAAA045 EQ PUSH2 0x237 JUMPI DUP1 PUSH4 0x23CF3118 EQ PUSH2 0x24C JUMPI DUP1 PUSH4 0x441A3E70 EQ PUSH2 0x25F JUMPI PUSH1 0x0 DUP1 REVERT JUMPDEST DUP1 PUSH4 0x81E3EDA EQ PUSH2 0x193 JUMPI DUP1 PUSH4 0xA087903 EQ PUSH2 0x1AA JUMPI DUP1 PUSH4 0x1526FE27 EQ PUSH2 0x1D5 JUMPI DUP1 PUSH4 0x17CAF6F1 EQ PUSH2 0x212 JUMPI DUP1 PUSH4 0x195426EC EQ PUSH2 0x21B JUMPI DUP1 PUSH4 0x1AED6553 EQ PUSH2 0x22E JUMPI JUMPDEST PUSH1 0x0 DUP1 REVERT JUMPDEST PUSH1 0x6 SLOAD JUMPDEST PUSH1 0x40 MLOAD SWAP1 DUP2 MSTORE PUSH1 0x20 ADD JUMPDEST PUSH1 0x40 MLOAD DUP1 SWAP2 SUB SWAP1 RETURN JUMPDEST PUSH1 0x1 SLOAD PUSH2 0x1BD SWAP1 PUSH1 0x1 PUSH1 0x1 PUSH1 0xA0 SHL SUB AND DUP2 JUMP JUMPDEST PUSH1 0x40 MLOAD PUSH1 0x1 PUSH1 0x1 PUSH1 0xA0 SHL SUB SWAP1 SWAP2 AND DUP2 MSTORE PUSH1 0x20 ADD PUSH2 0x1A1 JUMP JUMPDEST PUSH2 0x1E8 PUSH2 0x1E3 CALLDATASIZE PUSH1 0x4 PUSH2 0x1692 JUMP JUMPDEST PUSH2 0x3B2 JUMP JUMPDEST PUSH1 0x40 DUP1 MLOAD PUSH1 0x1 PUSH1 0x1 PUSH1 0xA0 SHL SUB SWAP1 SWAP6 AND DUP6 MSTORE PUSH1 0x20 DUP6 ADD SWAP4 SWAP1 SWAP4 MSTORE SWAP2 DUP4 ADD MSTORE PUSH1 0x60 DUP3 ADD MSTORE PUSH1 0x80 ADD PUSH2 0x1A1 JUMP JUMPDEST PUSH2 0x197 PUSH1 0x8 SLOAD DUP2 JUMP JUMPDEST PUSH2 0x197 PUSH2 0x229 CALLDATASIZE PUSH1 0x4 PUSH2 0x16C0 JUMP JUMPDEST PUSH2 0x3F6 JUMP JUMPDEST PUSH2 0x197 PUSH1 0x3 SLOAD DUP2 JUMP JUMPDEST PUSH2 0x24A PUSH2 0x245 CALLDATASIZE PUSH1 0x4 PUSH2 0x16FE JUMP JUMPDEST PUSH2 0x567 JUMP JUMPDEST STOP JUMPDEST PUSH2 0x24A PUSH2 0x25A CALLDATASIZE PUSH1 0x4 PUSH2 0x1740 JUMP JUMPDEST PUSH2 0x6BD JUMP JUMPDEST PUSH2 0x24A PUSH2 0x26D CALLDATASIZE PUSH1 0x4 PUSH2 0x175D JUMP JUMPDEST PUSH2 0x709 JUMP JUMPDEST PUSH2 0x24A PUSH2 0x280 CALLDATASIZE PUSH1 0x4 PUSH2 0x1692 JUMP JUMPDEST PUSH2 0x851 JUMP JUMPDEST PUSH2 0x197 PUSH1 0x9 SLOAD DUP2 JUMP JUMPDEST PUSH2 0x24A PUSH2 0x29C CALLDATASIZE PUSH1 0x4 PUSH2 0x1692 JUMP JUMPDEST PUSH2 0xA8C JUMP JUMPDEST PUSH2 0x24A PUSH2 0x2AF CALLDATASIZE PUSH1 0x4 PUSH2 0x1692 JUMP JUMPDEST PUSH2 0xCB8 JUMP JUMPDEST PUSH2 0x24A PUSH2 0xD5A JUMP JUMPDEST PUSH2 0x24A PUSH2 0x2CA CALLDATASIZE PUSH1 0x4 PUSH2 0x177F JUMP JUMPDEST PUSH2 0xD85 JUMP JUMPDEST PUSH2 0x24A PUSH2 0xE34 JUMP JUMPDEST PUSH1 0x5 SLOAD PUSH2 0x1BD SWAP1 PUSH1 0x1 PUSH1 0x1 PUSH1 0xA0 SHL SUB AND DUP2 JUMP JUMPDEST PUSH2 0x197 PUSH1 0xA DUP2 JUMP JUMPDEST PUSH2 0x24A PUSH2 0x300 CALLDATASIZE PUSH1 0x4 PUSH2 0x1740 JUMP JUMPDEST PUSH2 0xE6A JUMP JUMPDEST PUSH1 0x0 SLOAD PUSH1 0x1 PUSH1 0x1 PUSH1 0xA0 SHL SUB AND PUSH2 0x1BD JUMP JUMPDEST PUSH2 0x197 PUSH2 0x324 CALLDATASIZE PUSH1 0x4 PUSH2 0x175D JUMP JUMPDEST PUSH2 0xED2 JUMP JUMPDEST PUSH2 0x35B PUSH2 0x337 CALLDATASIZE PUSH1 0x4 PUSH2 0x16C0 JUMP JUMPDEST PUSH1 0x7 PUSH1 0x20 SWAP1 DUP2 MSTORE PUSH1 0x0 SWAP3 DUP4 MSTORE PUSH1 0x40 DUP1 DUP5 KECCAK256 SWAP1 SWAP2 MSTORE SWAP1 DUP3 MSTORE SWAP1 KECCAK256 DUP1 SLOAD PUSH1 0x1 SWAP1 SWAP2 ADD SLOAD DUP3 JUMP JUMPDEST PUSH1 0x40 DUP1 MLOAD SWAP3 DUP4 MSTORE PUSH1 0x20 DUP4 ADD SWAP2 SWAP1 SWAP2 MSTORE ADD PUSH2 0x1A1 JUMP JUMPDEST PUSH2 0x197 PUSH1 0x4 SLOAD DUP2 JUMP JUMPDEST PUSH1 0x2 SLOAD PUSH2 0x1BD SWAP1 PUSH1 0x1 PUSH1 0x1 PUSH1 0xA0 SHL SUB AND DUP2 JUMP JUMPDEST PUSH2 0x24A PUSH2 0x39A CALLDATASIZE PUSH1 0x4 PUSH2 0x175D JUMP JUMPDEST PUSH2 0xF38 JUMP JUMPDEST PUSH2 0x24A PUSH2 0x3AD CALLDATASIZE PUSH1 0x4 PUSH2 0x1740 JUMP JUMPDEST PUSH2 0x1043 JUMP JUMPDEST PUSH1 0x6 DUP2 DUP2 SLOAD DUP2 LT PUSH2 0x3C2 JUMPI PUSH1 0x0 DUP1 REVERT JUMPDEST PUSH1 0x0 SWAP2 DUP3 MSTORE PUSH1 0x20 SWAP1 SWAP2 KECCAK256 PUSH1 0x4 SWAP1 SWAP2 MUL ADD DUP1 SLOAD PUSH1 0x1 DUP3 ADD SLOAD PUSH1 0x2 DUP4 ADD SLOAD PUSH1 0x3 SWAP1 SWAP4 ADD SLOAD PUSH1 0x1 PUSH1 0x1 PUSH1 0xA0 SHL SUB SWAP1 SWAP3 AND SWAP4 POP SWAP2 SWAP1 DUP5 JUMP JUMPDEST PUSH1 0x0 DUP1 PUSH1 0x6 DUP5 DUP2 SLOAD DUP2 LT PUSH2 0x40C JUMPI PUSH2 0x40C PUSH2 0x17AD JUMP JUMPDEST PUSH1 0x0 SWAP2 DUP3 MSTORE PUSH1 0x20 DUP1 DUP4 KECCAK256 DUP8 DUP5 MSTORE PUSH1 0x7 DUP3 MSTORE PUSH1 0x40 DUP1 DUP6 KECCAK256 PUSH1 0x1 PUSH1 0x1 PUSH1 0xA0 SHL SUB DUP10 DUP2 AND DUP8 MSTORE SWAP4 MSTORE DUP1 DUP6 KECCAK256 PUSH1 0x4 SWAP5 DUP6 MUL SWAP1 SWAP3 ADD PUSH1 0x3 DUP2 ADD SLOAD DUP2 SLOAD SWAP3 MLOAD PUSH4 0x70A08231 PUSH1 0xE0 SHL DUP2 MSTORE ADDRESS SWAP7 DUP2 ADD SWAP7 SWAP1 SWAP7 MSTORE SWAP1 SWAP7 POP SWAP2 SWAP5 SWAP2 SWAP4 SWAP2 SWAP3 AND SWAP1 PUSH4 0x70A08231 SWAP1 PUSH1 0x24 ADD PUSH1 0x20 PUSH1 0x40 MLOAD DUP1 DUP4 SUB DUP2 DUP7 GAS STATICCALL ISZERO DUP1 ISZERO PUSH2 0x488 JUMPI RETURNDATASIZE PUSH1 0x0 DUP1 RETURNDATACOPY RETURNDATASIZE PUSH1 0x0 REVERT JUMPDEST POP POP POP POP PUSH1 0x40 MLOAD RETURNDATASIZE PUSH1 0x1F NOT PUSH1 0x1F DUP3 ADD AND DUP3 ADD DUP1 PUSH1 0x40 MSTORE POP DUP2 ADD SWAP1 PUSH2 0x4AC SWAP2 SWAP1 PUSH2 0x17C3 JUMP JUMPDEST SWAP1 POP DUP4 PUSH1 0x2 ADD SLOAD NUMBER GT DUP1 ISZERO PUSH2 0x4C0 JUMPI POP DUP1 ISZERO ISZERO JUMPDEST ISZERO PUSH2 0x52C JUMPI PUSH1 0x0 PUSH2 0x4D5 DUP6 PUSH1 0x2 ADD SLOAD NUMBER PUSH2 0xED2 JUMP JUMPDEST SWAP1 POP PUSH1 0x0 PUSH2 0x508 PUSH1 0x8 SLOAD PUSH2 0x502 DUP9 PUSH1 0x1 ADD SLOAD PUSH2 0x4FC PUSH1 0x4 SLOAD DUP8 PUSH2 0x10DE SWAP1 SWAP2 SWAP1 PUSH4 0xFFFFFFFF AND JUMP JUMPDEST SWAP1 PUSH2 0x10DE JUMP JUMPDEST SWAP1 PUSH2 0x10F1 JUMP JUMPDEST SWAP1 POP PUSH2 0x527 PUSH2 0x520 DUP5 PUSH2 0x502 DUP5 PUSH5 0xE8D4A51000 PUSH2 0x10DE JUMP JUMPDEST DUP6 SWAP1 PUSH2 0x10FD JUMP JUMPDEST SWAP4 POP POP POP JUMPDEST PUSH2 0x55A DUP4 PUSH1 0x1 ADD SLOAD PUSH2 0x554 PUSH5 0xE8D4A51000 PUSH2 0x502 DUP7 DUP9 PUSH1 0x0 ADD SLOAD PUSH2 0x10DE SWAP1 SWAP2 SWAP1 PUSH4 0xFFFFFFFF AND JUMP JUMPDEST SWAP1 PUSH2 0x1109 JUMP JUMPDEST SWAP5 POP POP POP POP POP JUMPDEST SWAP3 SWAP2 POP POP JUMP JUMPDEST PUSH1 0x0 SLOAD PUSH1 0x1 PUSH1 0x1 PUSH1 0xA0 SHL SUB AND CALLER EQ PUSH2 0x59A JUMPI PUSH1 0x40 MLOAD PUSH3 0x461BCD PUSH1 0xE5 SHL DUP2 MSTORE PUSH1 0x4 ADD PUSH2 0x591 SWAP1 PUSH2 0x17DC JUMP JUMPDEST PUSH1 0x40 MLOAD DUP1 SWAP2 SUB SWAP1 REVERT JUMPDEST DUP1 ISZERO PUSH2 0x5A8 JUMPI PUSH2 0x5A8 PUSH2 0xD5A JUMP JUMPDEST PUSH1 0x0 PUSH1 0x9 SLOAD NUMBER GT PUSH2 0x5BB JUMPI PUSH1 0x9 SLOAD PUSH2 0x5BD JUMP JUMPDEST NUMBER JUMPDEST PUSH1 0x8 SLOAD SWAP1 SWAP2 POP PUSH2 0x5CD SWAP1 DUP6 PUSH2 0x10FD JUMP JUMPDEST PUSH1 0x8 SSTORE PUSH1 0x40 DUP1 MLOAD PUSH1 0x80 DUP2 ADD DUP3 MSTORE PUSH1 0x1 PUSH1 0x1 PUSH1 0xA0 SHL SUB SWAP5 DUP6 AND DUP2 MSTORE PUSH1 0x20 DUP2 ADD SWAP6 DUP7 MSTORE SWAP1 DUP2 ADD SWAP2 DUP3 MSTORE PUSH1 0x0 PUSH1 0x60 DUP3 ADD DUP2 DUP2 MSTORE PUSH1 0x6 DUP1 SLOAD PUSH1 0x1 DUP2 ADD DUP3 SSTORE SWAP3 MSTORE SWAP2 MLOAD PUSH32 0xF652222313E28459528D920B65115C16C04F3EFC82AAEDC97BE59F3F377C0D3F PUSH1 0x4 SWAP1 SWAP3 MUL SWAP2 DUP3 ADD DUP1 SLOAD PUSH1 0x1 PUSH1 0x1 PUSH1 0xA0 SHL SUB NOT AND SWAP2 SWAP1 SWAP7 AND OR SWAP1 SWAP5 SSTORE SWAP4 MLOAD PUSH32 0xF652222313E28459528D920B65115C16C04F3EFC82AAEDC97BE59F3F377C0D40 DUP5 ADD SSTORE MLOAD PUSH32 0xF652222313E28459528D920B65115C16C04F3EFC82AAEDC97BE59F3F377C0D41 DUP4 ADD SSTORE POP SWAP1 MLOAD PUSH32 0xF652222313E28459528D920B65115C16C04F3EFC82AAEDC97BE59F3F377C0D42 SWAP1 SWAP2 ADD SSTORE JUMP JUMPDEST PUSH1 0x0 SLOAD PUSH1 0x1 PUSH1 0x1 PUSH1 0xA0 SHL SUB AND CALLER EQ PUSH2 0x6E7 JUMPI PUSH1 0x40 MLOAD PUSH3 0x461BCD PUSH1 0xE5 SHL DUP2 MSTORE PUSH1 0x4 ADD PUSH2 0x591 SWAP1 PUSH2 0x17DC JUMP JUMPDEST PUSH1 0x5 DUP1 SLOAD PUSH1 0x1 PUSH1 0x1 PUSH1 0xA0 SHL SUB NOT AND PUSH1 0x1 PUSH1 0x1 PUSH1 0xA0 SHL SUB SWAP3 SWAP1 SWAP3 AND SWAP2 SWAP1 SWAP2 OR SWAP1 SSTORE JUMP JUMPDEST PUSH1 0x0 PUSH1 0x6 DUP4 DUP2 SLOAD DUP2 LT PUSH2 0x71E JUMPI PUSH2 0x71E PUSH2 0x17AD JUMP JUMPDEST PUSH1 0x0 SWAP2 DUP3 MSTORE PUSH1 0x20 DUP1 DUP4 KECCAK256 DUP7 DUP5 MSTORE PUSH1 0x7 DUP3 MSTORE PUSH1 0x40 DUP1 DUP6 KECCAK256 CALLER DUP7 MSTORE SWAP1 SWAP3 MSTORE SWAP3 KECCAK256 DUP1 SLOAD PUSH1 0x4 SWAP1 SWAP3 MUL SWAP1 SWAP3 ADD SWAP3 POP DUP4 GT ISZERO PUSH2 0x78C JUMPI PUSH1 0x40 MLOAD PUSH3 0x461BCD PUSH1 0xE5 SHL DUP2 MSTORE PUSH1 0x20 PUSH1 0x4 DUP3 ADD MSTORE PUSH1 0x12 PUSH1 0x24 DUP3 ADD MSTORE PUSH18 0x1DDA5D1A191C985DCE881B9BDD0819DBDBD9 PUSH1 0x72 SHL PUSH1 0x44 DUP3 ADD MSTORE PUSH1 0x64 ADD PUSH2 0x591 JUMP JUMPDEST PUSH2 0x795 DUP5 PUSH2 0xA8C JUMP JUMPDEST PUSH1 0x0 PUSH2 0x7C3 DUP3 PUSH1 0x1 ADD SLOAD PUSH2 0x554 PUSH5 0xE8D4A51000 PUSH2 0x502 DUP8 PUSH1 0x3 ADD SLOAD DUP8 PUSH1 0x0 ADD SLOAD PUSH2 0x10DE SWAP1 SWAP2 SWAP1 PUSH4 0xFFFFFFFF AND JUMP JUMPDEST SWAP1 POP PUSH2 0x7CF CALLER DUP3 PUSH2 0x1115 JUMP JUMPDEST DUP2 SLOAD PUSH2 0x7DB SWAP1 DUP6 PUSH2 0x1109 JUMP JUMPDEST DUP1 DUP4 SSTORE PUSH1 0x3 DUP5 ADD SLOAD PUSH2 0x7F8 SWAP2 PUSH5 0xE8D4A51000 SWAP2 PUSH2 0x502 SWAP2 SWAP1 PUSH2 0x10DE JUMP JUMPDEST PUSH1 0x1 DUP4 ADD SSTORE DUP3 SLOAD PUSH2 0x813 SWAP1 PUSH1 0x1 PUSH1 0x1 PUSH1 0xA0 SHL SUB AND CALLER DUP7 PUSH2 0x1248 JUMP JUMPDEST PUSH1 0x40 MLOAD DUP5 DUP2 MSTORE DUP6 SWAP1 CALLER SWAP1 PUSH32 0xF279E6A1F5E320CCA91135676D9CB6E44CA8A08C0B88342BCDB1144F6511B568 SWAP1 PUSH1 0x20 ADD PUSH1 0x40 MLOAD DUP1 SWAP2 SUB SWAP1 LOG3 POP POP POP POP POP JUMP JUMPDEST PUSH1 0x5 SLOAD PUSH1 0x1 PUSH1 0x1 PUSH1 0xA0 SHL SUB AND PUSH2 0x8A0 JUMPI PUSH1 0x40 MLOAD PUSH3 0x461BCD PUSH1 0xE5 SHL DUP2 MSTORE PUSH1 0x20 PUSH1 0x4 DUP3 ADD MSTORE PUSH1 0x14 PUSH1 0x24 DUP3 ADD MSTORE PUSH20 0x36B4B3B930BA329D1037379036B4B3B930BA37B9 PUSH1 0x61 SHL PUSH1 0x44 DUP3 ADD MSTORE PUSH1 0x64 ADD PUSH2 0x591 JUMP JUMPDEST PUSH1 0x0 PUSH1 0x6 DUP3 DUP2 SLOAD DUP2 LT PUSH2 0x8B5 JUMPI PUSH2 0x8B5 PUSH2 0x17AD JUMP JUMPDEST PUSH1 0x0 SWAP2 DUP3 MSTORE PUSH1 0x20 DUP3 KECCAK256 PUSH1 0x4 SWAP2 DUP3 MUL ADD DUP1 SLOAD PUSH1 0x40 MLOAD PUSH4 0x70A08231 PUSH1 0xE0 SHL DUP2 MSTORE ADDRESS SWAP4 DUP2 ADD SWAP4 SWAP1 SWAP4 MSTORE SWAP1 SWAP4 POP PUSH1 0x1 PUSH1 0x1 PUSH1 0xA0 SHL SUB AND SWAP2 SWAP1 DUP3 SWAP1 PUSH4 0x70A08231 SWAP1 PUSH1 0x24 ADD PUSH1 0x20 PUSH1 0x40 MLOAD DUP1 DUP4 SUB DUP2 DUP7 GAS STATICCALL ISZERO DUP1 ISZERO PUSH2 0x911 JUMPI RETURNDATASIZE PUSH1 0x0 DUP1 RETURNDATACOPY RETURNDATASIZE PUSH1 0x0 REVERT JUMPDEST POP POP POP POP PUSH1 0x40 MLOAD RETURNDATASIZE PUSH1 0x1F NOT PUSH1 0x1F DUP3 ADD AND DUP3 ADD DUP1 PUSH1 0x40 MSTORE POP DUP2 ADD SWAP1 PUSH2 0x935 SWAP2 SWAP1 PUSH2 0x17C3 JUMP JUMPDEST PUSH1 0x5 SLOAD SWAP1 SWAP2 POP PUSH2 0x952 SWAP1 PUSH1 0x1 PUSH1 0x1 PUSH1 0xA0 SHL SUB DUP5 DUP2 AND SWAP2 AND DUP4 PUSH2 0x12AB JUMP JUMPDEST PUSH1 0x5 SLOAD PUSH1 0x40 MLOAD PUSH4 0xCE5494BB PUSH1 0xE0 SHL DUP2 MSTORE PUSH1 0x1 PUSH1 0x1 PUSH1 0xA0 SHL SUB DUP5 DUP2 AND PUSH1 0x4 DUP4 ADD MSTORE PUSH1 0x0 SWAP3 AND SWAP1 PUSH4 0xCE5494BB SWAP1 PUSH1 0x24 ADD PUSH1 0x20 PUSH1 0x40 MLOAD DUP1 DUP4 SUB DUP2 PUSH1 0x0 DUP8 GAS CALL ISZERO DUP1 ISZERO PUSH2 0x99F JUMPI RETURNDATASIZE PUSH1 0x0 DUP1 RETURNDATACOPY RETURNDATASIZE PUSH1 0x0 REVERT JUMPDEST POP POP POP POP PUSH1 0x40 MLOAD RETURNDATASIZE PUSH1 0x1F NOT PUSH1 0x1F DUP3 ADD AND DUP3 ADD DUP1 PUSH1 0x40 MSTORE POP DUP2 ADD SWAP1 PUSH2 0x9C3 SWAP2 SWAP1 PUSH2 0x1811 JUMP JUMPDEST PUSH1 0x40 MLOAD PUSH4 0x70A08231 PUSH1 0xE0 SHL DUP2 MSTORE ADDRESS PUSH1 0x4 DUP3 ADD MSTORE SWAP1 SWAP2 POP PUSH1 0x1 PUSH1 0x1 PUSH1 0xA0 SHL SUB DUP3 AND SWAP1 PUSH4 0x70A08231 SWAP1 PUSH1 0x24 ADD PUSH1 0x20 PUSH1 0x40 MLOAD DUP1 DUP4 SUB DUP2 DUP7 GAS STATICCALL ISZERO DUP1 ISZERO PUSH2 0xA0A JUMPI RETURNDATASIZE PUSH1 0x0 DUP1 RETURNDATACOPY RETURNDATASIZE PUSH1 0x0 REVERT JUMPDEST POP POP POP POP PUSH1 0x40 MLOAD RETURNDATASIZE PUSH1 0x1F NOT PUSH1 0x1F DUP3 ADD AND DUP3 ADD DUP1 PUSH1 0x40 MSTORE POP DUP2 ADD SWAP1 PUSH2 0xA2E SWAP2 SWAP1 PUSH2 0x17C3 JUMP JUMPDEST DUP3 EQ PUSH2 0xA6B JUMPI PUSH1 0x40 MLOAD PUSH3 0x461BCD PUSH1 0xE5 SHL DUP2 MSTORE PUSH1 0x20 PUSH1 0x4 DUP3 ADD MSTORE PUSH1 0xC PUSH1 0x24 DUP3 ADD MSTORE PUSH12 0x1B5A59DC985D194E88189859 PUSH1 0xA2 SHL PUSH1 0x44 DUP3 ADD MSTORE PUSH1 0x64 ADD PUSH2 0x591 JUMP JUMPDEST DUP4 SLOAD PUSH1 0x1 PUSH1 0x1 PUSH1 0xA0 SHL SUB NOT AND PUSH1 0x1 PUSH1 0x1 PUSH1 0xA0 SHL SUB SWAP2 SWAP1 SWAP2 AND OR SWAP1 SWAP3 SSTORE POP POP POP JUMP JUMPDEST PUSH1 0x0 PUSH1 0x6 DUP3 DUP2 SLOAD DUP2 LT PUSH2 0xAA1 JUMPI PUSH2 0xAA1 PUSH2 0x17AD JUMP JUMPDEST SWAP1 PUSH1 0x0 MSTORE PUSH1 0x20 PUSH1 0x0 KECCAK256 SWAP1 PUSH1 0x4 MUL ADD SWAP1 POP DUP1 PUSH1 0x2 ADD SLOAD NUMBER GT PUSH2 0xAC0 JUMPI POP POP JUMP JUMPDEST DUP1 SLOAD PUSH1 0x40 MLOAD PUSH4 0x70A08231 PUSH1 0xE0 SHL DUP2 MSTORE ADDRESS PUSH1 0x4 DUP3 ADD MSTORE PUSH1 0x0 SWAP2 PUSH1 0x1 PUSH1 0x1 PUSH1 0xA0 SHL SUB AND SWAP1 PUSH4 0x70A08231 SWAP1 PUSH1 0x24 ADD PUSH1 0x20 PUSH1 0x40 MLOAD DUP1 DUP4 SUB DUP2 DUP7 GAS STATICCALL ISZERO DUP1 ISZERO PUSH2 0xB08 JUMPI RETURNDATASIZE PUSH1 0x0 DUP1 RETURNDATACOPY RETURNDATASIZE PUSH1 0x0 REVERT JUMPDEST POP POP POP POP PUSH1 0x40 MLOAD RETURNDATASIZE PUSH1 0x1F NOT PUSH1 0x1F DUP3 ADD AND DUP3 ADD DUP1 PUSH1 0x40 MSTORE POP DUP2 ADD SWAP1 PUSH2 0xB2C SWAP2 SWAP1 PUSH2 0x17C3 JUMP JUMPDEST SWAP1 POP DUP1 PUSH2 0xB3E JUMPI POP NUMBER PUSH1 0x2 SWAP1 SWAP2 ADD SSTORE POP JUMP JUMPDEST PUSH1 0x0 PUSH2 0xB4E DUP4 PUSH1 0x2 ADD SLOAD NUMBER PUSH2 0xED2 JUMP JUMPDEST SWAP1 POP PUSH1 0x0 PUSH2 0xB75 PUSH1 0x8 SLOAD PUSH2 0x502 DUP7 PUSH1 0x1 ADD SLOAD PUSH2 0x4FC PUSH1 0x4 SLOAD DUP8 PUSH2 0x10DE SWAP1 SWAP2 SWAP1 PUSH4 0xFFFFFFFF AND JUMP JUMPDEST PUSH1 0x1 SLOAD PUSH1 0x2 SLOAD SWAP2 SWAP3 POP PUSH1 0x1 PUSH1 0x1 PUSH1 0xA0 SHL SUB SWAP1 DUP2 AND SWAP2 PUSH4 0x40C10F19 SWAP2 AND PUSH2 0xB9C DUP5 PUSH1 0xA PUSH2 0x10F1 JUMP JUMPDEST PUSH1 0x40 MLOAD PUSH1 0x1 PUSH1 0x1 PUSH1 0xE0 SHL SUB NOT PUSH1 0xE0 DUP6 SWAP1 SHL AND DUP2 MSTORE PUSH1 0x1 PUSH1 0x1 PUSH1 0xA0 SHL SUB SWAP1 SWAP3 AND PUSH1 0x4 DUP4 ADD MSTORE PUSH1 0x24 DUP3 ADD MSTORE PUSH1 0x44 ADD PUSH1 0x20 PUSH1 0x40 MLOAD DUP1 DUP4 SUB DUP2 PUSH1 0x0 DUP8 GAS CALL ISZERO DUP1 ISZERO PUSH2 0xBE7 JUMPI RETURNDATASIZE PUSH1 0x0 DUP1 RETURNDATACOPY RETURNDATASIZE PUSH1 0x0 REVERT JUMPDEST POP POP POP POP PUSH1 0x40 MLOAD RETURNDATASIZE PUSH1 0x1F NOT PUSH1 0x1F DUP3 ADD AND DUP3 ADD DUP1 PUSH1 0x40 MSTORE POP DUP2 ADD SWAP1 PUSH2 0xC0B SWAP2 SWAP1 PUSH2 0x182E JUMP JUMPDEST POP PUSH1 0x1 SLOAD PUSH1 0x40 MLOAD PUSH4 0x40C10F19 PUSH1 0xE0 SHL DUP2 MSTORE ADDRESS PUSH1 0x4 DUP3 ADD MSTORE PUSH1 0x24 DUP2 ADD DUP4 SWAP1 MSTORE PUSH1 0x1 PUSH1 0x1 PUSH1 0xA0 SHL SUB SWAP1 SWAP2 AND SWAP1 PUSH4 0x40C10F19 SWAP1 PUSH1 0x44 ADD PUSH1 0x20 PUSH1 0x40 MLOAD DUP1 DUP4 SUB DUP2 PUSH1 0x0 DUP8 GAS CALL ISZERO DUP1 ISZERO PUSH2 0xC5D JUMPI RETURNDATASIZE PUSH1 0x0 DUP1 RETURNDATACOPY RETURNDATASIZE PUSH1 0x0 REVERT JUMPDEST POP POP POP POP PUSH1 0x40 MLOAD RETURNDATASIZE PUSH1 0x1F NOT PUSH1 0x1F DUP3 ADD AND DUP3 ADD DUP1 PUSH1 0x40 MSTORE POP DUP2 ADD SWAP1 PUSH2 0xC81 SWAP2 SWAP1 PUSH2 0x182E JUMP JUMPDEST POP PUSH2 0xCA3 PUSH2 0xC98 DUP5 PUSH2 0x502 DUP5 PUSH5 0xE8D4A51000 PUSH2 0x10DE JUMP JUMPDEST PUSH1 0x3 DUP7 ADD SLOAD SWAP1 PUSH2 0x10FD JUMP JUMPDEST PUSH1 0x3 DUP6 ADD SSTORE POP POP NUMBER PUSH1 0x2 SWAP1 SWAP3 ADD SWAP2 SWAP1 SWAP2 SSTORE POP POP JUMP JUMPDEST PUSH1 0x0 PUSH1 0x6 DUP3 DUP2 SLOAD DUP2 LT PUSH2 0xCCD JUMPI PUSH2 0xCCD PUSH2 0x17AD JUMP JUMPDEST PUSH1 0x0 SWAP2 DUP3 MSTORE PUSH1 0x20 DUP1 DUP4 KECCAK256 DUP6 DUP5 MSTORE PUSH1 0x7 DUP3 MSTORE PUSH1 0x40 DUP1 DUP6 KECCAK256 CALLER DUP1 DUP8 MSTORE SWAP4 MSTORE SWAP1 SWAP4 KECCAK256 DUP1 SLOAD PUSH1 0x4 SWAP1 SWAP4 MUL SWAP1 SWAP4 ADD DUP1 SLOAD SWAP1 SWAP5 POP PUSH2 0xD12 SWAP3 PUSH1 0x1 PUSH1 0x1 PUSH1 0xA0 SHL SUB SWAP2 SWAP1 SWAP2 AND SWAP2 SWAP1 PUSH2 0x1248 JUMP JUMPDEST DUP1 SLOAD PUSH1 0x40 MLOAD SWAP1 DUP2 MSTORE DUP4 SWAP1 CALLER SWAP1 PUSH32 0xBB757047C2B5F3974FE26B7C10F732E7BCE710B0952A71082702781E62AE0595 SWAP1 PUSH1 0x20 ADD PUSH1 0x40 MLOAD DUP1 SWAP2 SUB SWAP1 LOG3 PUSH1 0x0 DUP1 DUP3 SSTORE PUSH1 0x1 SWAP1 SWAP2 ADD SSTORE POP POP JUMP JUMPDEST PUSH1 0x6 SLOAD PUSH1 0x0 JUMPDEST DUP2 DUP2 LT ISZERO PUSH2 0xD81 JUMPI PUSH2 0xD71 DUP2 PUSH2 0xA8C JUMP JUMPDEST PUSH2 0xD7A DUP2 PUSH2 0x1861 JUMP JUMPDEST SWAP1 POP PUSH2 0xD60 JUMP JUMPDEST POP POP JUMP JUMPDEST PUSH1 0x0 SLOAD PUSH1 0x1 PUSH1 0x1 PUSH1 0xA0 SHL SUB AND CALLER EQ PUSH2 0xDAF JUMPI PUSH1 0x40 MLOAD PUSH3 0x461BCD PUSH1 0xE5 SHL DUP2 MSTORE PUSH1 0x4 ADD PUSH2 0x591 SWAP1 PUSH2 0x17DC JUMP JUMPDEST DUP1 ISZERO PUSH2 0xDBD JUMPI PUSH2 0xDBD PUSH2 0xD5A JUMP JUMPDEST PUSH2 0xE00 DUP3 PUSH2 0xDFA PUSH1 0x6 DUP7 DUP2 SLOAD DUP2 LT PUSH2 0xDD7 JUMPI PUSH2 0xDD7 PUSH2 0x17AD JUMP JUMPDEST SWAP1 PUSH1 0x0 MSTORE PUSH1 0x20 PUSH1 0x0 KECCAK256 SWAP1 PUSH1 0x4 MUL ADD PUSH1 0x1 ADD SLOAD PUSH1 0x8 SLOAD PUSH2 0x1109 SWAP1 SWAP2 SWAP1 PUSH4 0xFFFFFFFF AND JUMP JUMPDEST SWAP1 PUSH2 0x10FD JUMP JUMPDEST PUSH1 0x8 DUP2 SWAP1 SSTORE POP DUP2 PUSH1 0x6 DUP5 DUP2 SLOAD DUP2 LT PUSH2 0xE1A JUMPI PUSH2 0xE1A PUSH2 0x17AD JUMP JUMPDEST SWAP1 PUSH1 0x0 MSTORE PUSH1 0x20 PUSH1 0x0 KECCAK256 SWAP1 PUSH1 0x4 MUL ADD PUSH1 0x1 ADD DUP2 SWAP1 SSTORE POP POP POP POP JUMP JUMPDEST PUSH1 0x0 SLOAD PUSH1 0x1 PUSH1 0x1 PUSH1 0xA0 SHL SUB AND CALLER EQ PUSH2 0xE5E JUMPI PUSH1 0x40 MLOAD PUSH3 0x461BCD PUSH1 0xE5 SHL DUP2 MSTORE PUSH1 0x4 ADD PUSH2 0x591 SWAP1 PUSH2 0x17DC JUMP JUMPDEST PUSH2 0xE68 PUSH1 0x0 PUSH2 0x13C0 JUMP JUMPDEST JUMP JUMPDEST PUSH1 0x2 SLOAD PUSH1 0x1 PUSH1 0x1 PUSH1 0xA0 SHL SUB AND CALLER EQ PUSH2 0xEB0 JUMPI PUSH1 0x40 MLOAD PUSH3 0x461BCD PUSH1 0xE5 SHL DUP2 MSTORE PUSH1 0x20 PUSH1 0x4 DUP3 ADD MSTORE PUSH1 0x9 PUSH1 0x24 DUP3 ADD MSTORE PUSH9 0x6465763A207775743F PUSH1 0xB8 SHL PUSH1 0x44 DUP3 ADD MSTORE PUSH1 0x64 ADD PUSH2 0x591 JUMP JUMPDEST PUSH1 0x2 DUP1 SLOAD PUSH1 0x1 PUSH1 0x1 PUSH1 0xA0 SHL SUB NOT AND PUSH1 0x1 PUSH1 0x1 PUSH1 0xA0 SHL SUB SWAP3 SWAP1 SWAP3 AND SWAP2 SWAP1 SWAP2 OR SWAP1 SSTORE JUMP JUMPDEST PUSH1 0x0 PUSH1 0x3 SLOAD DUP3 GT PUSH2 0xEF3 JUMPI PUSH2 0xEEC PUSH1 0xA PUSH2 0x4FC DUP5 DUP7 PUSH2 0x1109 JUMP JUMPDEST SWAP1 POP PUSH2 0x561 JUMP JUMPDEST PUSH1 0x3 SLOAD DUP4 LT PUSH2 0xF06 JUMPI PUSH2 0xEEC DUP3 DUP5 PUSH2 0x1109 JUMP JUMPDEST PUSH2 0xEEC PUSH2 0xF1E PUSH1 0x3 SLOAD DUP5 PUSH2 0x1109 SWAP1 SWAP2 SWAP1 PUSH4 0xFFFFFFFF AND JUMP JUMPDEST PUSH2 0xDFA PUSH1 0xA PUSH2 0x4FC DUP8 PUSH1 0x3 SLOAD PUSH2 0x1109 SWAP1 SWAP2 SWAP1 PUSH4 0xFFFFFFFF AND JUMP JUMPDEST PUSH1 0x0 PUSH1 0x6 DUP4 DUP2 SLOAD DUP2 LT PUSH2 0xF4D JUMPI PUSH2 0xF4D PUSH2 0x17AD JUMP JUMPDEST PUSH1 0x0 SWAP2 DUP3 MSTORE PUSH1 0x20 DUP1 DUP4 KECCAK256 DUP7 DUP5 MSTORE PUSH1 0x7 DUP3 MSTORE PUSH1 0x40 DUP1 DUP6 KECCAK256 CALLER DUP7 MSTORE SWAP1 SWAP3 MSTORE SWAP3 KECCAK256 PUSH1 0x4 SWAP1 SWAP2 MUL SWAP1 SWAP2 ADD SWAP2 POP PUSH2 0xF7E DUP5 PUSH2 0xA8C JUMP JUMPDEST DUP1 SLOAD ISZERO PUSH2 0xFC1 JUMPI PUSH1 0x0 PUSH2 0xFB3 DUP3 PUSH1 0x1 ADD SLOAD PUSH2 0x554 PUSH5 0xE8D4A51000 PUSH2 0x502 DUP8 PUSH1 0x3 ADD SLOAD DUP8 PUSH1 0x0 ADD SLOAD PUSH2 0x10DE SWAP1 SWAP2 SWAP1 PUSH4 0xFFFFFFFF AND JUMP JUMPDEST SWAP1 POP PUSH2 0xFBF CALLER DUP3 PUSH2 0x1115 JUMP JUMPDEST POP JUMPDEST DUP2 SLOAD PUSH2 0xFD8 SWAP1 PUSH1 0x1 PUSH1 0x1 PUSH1 0xA0 SHL SUB AND CALLER ADDRESS DUP7 PUSH2 0x1410 JUMP JUMPDEST DUP1 SLOAD PUSH2 0xFE4 SWAP1 DUP5 PUSH2 0x10FD JUMP JUMPDEST DUP1 DUP3 SSTORE PUSH1 0x3 DUP4 ADD SLOAD PUSH2 0x1001 SWAP2 PUSH5 0xE8D4A51000 SWAP2 PUSH2 0x502 SWAP2 SWAP1 PUSH2 0x10DE JUMP JUMPDEST PUSH1 0x1 DUP3 ADD SSTORE PUSH1 0x40 MLOAD DUP4 DUP2 MSTORE DUP5 SWAP1 CALLER SWAP1 PUSH32 0x90890809C654F11D6E72A28FA60149770A0D11EC6C92319D6CEB2BB0A4EA1A15 SWAP1 PUSH1 0x20 ADD PUSH1 0x40 MLOAD DUP1 SWAP2 SUB SWAP1 LOG3 POP POP POP POP JUMP JUMPDEST PUSH1 0x0 SLOAD PUSH1 0x1 PUSH1 0x1 PUSH1 0xA0 SHL SUB AND CALLER EQ PUSH2 0x106D JUMPI PUSH1 0x40 MLOAD PUSH3 0x461BCD PUSH1 0xE5 SHL DUP2 MSTORE PUSH1 0x4 ADD PUSH2 0x591 SWAP1 PUSH2 0x17DC JUMP JUMPDEST PUSH1 0x1 PUSH1 0x1 PUSH1 0xA0 SHL SUB DUP2 AND PUSH2 0x10D2 JUMPI PUSH1 0x40 MLOAD PUSH3 0x461BCD PUSH1 0xE5 SHL DUP2 MSTORE PUSH1 0x20 PUSH1 0x4 DUP3 ADD MSTORE PUSH1 0x26 PUSH1 0x24 DUP3 ADD MSTORE PUSH32 0x4F776E61626C653A206E6577206F776E657220697320746865207A65726F2061 PUSH1 0x44 DUP3 ADD MSTORE PUSH6 0x646472657373 PUSH1 0xD0 SHL PUSH1 0x64 DUP3 ADD MSTORE PUSH1 0x84 ADD PUSH2 0x591 JUMP JUMPDEST PUSH2 0x10DB DUP2 PUSH2 0x13C0 JUMP JUMPDEST POP JUMP JUMPDEST PUSH1 0x0 PUSH2 0x10EA DUP3 DUP5 PUSH2 0x187C JUMP JUMPDEST SWAP4 SWAP3 POP POP POP JUMP JUMPDEST PUSH1 0x0 PUSH2 0x10EA DUP3 DUP5 PUSH2 0x189B JUMP JUMPDEST PUSH1 0x0 PUSH2 0x10EA DUP3 DUP5 PUSH2 0x18BD JUMP JUMPDEST PUSH1 0x0 PUSH2 0x10EA DUP3 DUP5 PUSH2 0x18D5 JUMP JUMPDEST PUSH1 0x1 SLOAD PUSH1 0x40 MLOAD PUSH4 0x70A08231 PUSH1 0xE0 SHL DUP2 MSTORE ADDRESS PUSH1 0x4 DUP3 ADD MSTORE PUSH1 0x0 SWAP2 PUSH1 0x1 PUSH1 0x1 PUSH1 0xA0 SHL SUB AND SWAP1 PUSH4 0x70A08231 SWAP1 PUSH1 0x24 ADD PUSH1 0x20 PUSH1 0x40 MLOAD DUP1 DUP4 SUB DUP2 DUP7 GAS STATICCALL ISZERO DUP1 ISZERO PUSH2 0x115E JUMPI RETURNDATASIZE PUSH1 0x0 DUP1 RETURNDATACOPY RETURNDATASIZE PUSH1 0x0 REVERT JUMPDEST POP POP POP POP PUSH1 0x40 MLOAD RETURNDATASIZE PUSH1 0x1F NOT PUSH1 0x1F DUP3 ADD AND DUP3 ADD DUP1 PUSH1 0x40 MSTORE POP DUP2 ADD SWAP1 PUSH2 0x1182 SWAP2 SWAP1 PUSH2 0x17C3 JUMP JUMPDEST SWAP1 POP DUP1 DUP3 GT ISZERO PUSH2 0x120A JUMPI PUSH1 0x1 SLOAD PUSH1 0x40 MLOAD PUSH4 0xA9059CBB PUSH1 0xE0 SHL DUP2 MSTORE PUSH1 0x1 PUSH1 0x1 PUSH1 0xA0 SHL SUB DUP6 DUP2 AND PUSH1 0x4 DUP4 ADD MSTORE PUSH1 0x24 DUP3 ADD DUP5 SWAP1 MSTORE SWAP1 SWAP2 AND SWAP1 PUSH4 0xA9059CBB SWAP1 PUSH1 0x44 ADD JUMPDEST PUSH1 0x20 PUSH1 0x40 MLOAD DUP1 DUP4 SUB DUP2 PUSH1 0x0 DUP8 GAS CALL ISZERO DUP1 ISZERO PUSH2 0x11E0 JUMPI RETURNDATASIZE PUSH1 0x0 DUP1 RETURNDATACOPY RETURNDATASIZE PUSH1 0x0 REVERT JUMPDEST POP POP POP POP PUSH1 0x40 MLOAD RETURNDATASIZE PUSH1 0x1F NOT PUSH1 0x1F DUP3 ADD AND DUP3 ADD DUP1 PUSH1 0x40 MSTORE POP DUP2 ADD SWAP1 PUSH2 0x1204 SWAP2 SWAP1 PUSH2 0x182E JUMP JUMPDEST POP POP POP POP JUMP JUMPDEST PUSH1 0x1 SLOAD PUSH1 0x40 MLOAD PUSH4 0xA9059CBB PUSH1 0xE0 SHL DUP2 MSTORE PUSH1 0x1 PUSH1 0x1 PUSH1 0xA0 SHL SUB DUP6 DUP2 AND PUSH1 0x4 DUP4 ADD MSTORE PUSH1 0x24 DUP3 ADD DUP6 SWAP1 MSTORE SWAP1 SWAP2 AND SWAP1 PUSH4 0xA9059CBB SWAP1 PUSH1 0x44 ADD PUSH2 0x11C1 JUMP JUMPDEST POP POP POP JUMP JUMPDEST PUSH1 0x40 MLOAD PUSH1 0x1 PUSH1 0x1 PUSH1 0xA0 SHL SUB DUP4 AND PUSH1 0x24 DUP3 ADD MSTORE PUSH1 0x44 DUP2 ADD DUP3 SWAP1 MSTORE PUSH2 0x1243 SWAP1 DUP5 SWAP1 PUSH4 0xA9059CBB PUSH1 0xE0 SHL SWAP1 PUSH1 0x64 ADD JUMPDEST PUSH1 0x40 DUP1 MLOAD PUSH1 0x1F NOT DUP2 DUP5 SUB ADD DUP2 MSTORE SWAP2 SWAP1 MSTORE PUSH1 0x20 DUP2 ADD DUP1 MLOAD PUSH1 0x1 PUSH1 0x1 PUSH1 0xE0 SHL SUB AND PUSH1 0x1 PUSH1 0x1 PUSH1 0xE0 SHL SUB NOT SWAP1 SWAP4 AND SWAP3 SWAP1 SWAP3 OR SWAP1 SWAP2 MSTORE PUSH2 0x1448 JUMP JUMPDEST DUP1 ISZERO DUP1 PUSH2 0x1325 JUMPI POP PUSH1 0x40 MLOAD PUSH4 0x6EB1769F PUSH1 0xE1 SHL DUP2 MSTORE ADDRESS PUSH1 0x4 DUP3 ADD MSTORE PUSH1 0x1 PUSH1 0x1 PUSH1 0xA0 SHL SUB DUP4 DUP2 AND PUSH1 0x24 DUP4 ADD MSTORE DUP5 AND SWAP1 PUSH4 0xDD62ED3E SWAP1 PUSH1 0x44 ADD PUSH1 0x20 PUSH1 0x40 MLOAD DUP1 DUP4 SUB DUP2 DUP7 GAS STATICCALL ISZERO DUP1 ISZERO PUSH2 0x12FF JUMPI RETURNDATASIZE PUSH1 0x0 DUP1 RETURNDATACOPY RETURNDATASIZE PUSH1 0x0 REVERT JUMPDEST POP POP POP POP PUSH1 0x40 MLOAD RETURNDATASIZE PUSH1 0x1F NOT PUSH1 0x1F DUP3 ADD AND DUP3 ADD DUP1 PUSH1 0x40 MSTORE POP DUP2 ADD SWAP1 PUSH2 0x1323 SWAP2 SWAP1 PUSH2 0x17C3 JUMP JUMPDEST ISZERO JUMPDEST PUSH2 0x1390 JUMPI PUSH1 0x40 MLOAD PUSH3 0x461BCD PUSH1 0xE5 SHL DUP2 MSTORE PUSH1 0x20 PUSH1 0x4 DUP3 ADD MSTORE PUSH1 0x36 PUSH1 0x24 DUP3 ADD MSTORE PUSH32 0x5361666545524332303A20617070726F76652066726F6D206E6F6E2D7A65726F PUSH1 0x44 DUP3 ADD MSTORE PUSH22 0x20746F206E6F6E2D7A65726F20616C6C6F77616E6365 PUSH1 0x50 SHL PUSH1 0x64 DUP3 ADD MSTORE PUSH1 0x84 ADD PUSH2 0x591 JUMP JUMPDEST PUSH1 0x40 MLOAD PUSH1 0x1 PUSH1 0x1 PUSH1 0xA0 SHL SUB DUP4 AND PUSH1 0x24 DUP3 ADD MSTORE PUSH1 0x44 DUP2 ADD DUP3 SWAP1 MSTORE PUSH2 0x1243 SWAP1 DUP5 SWAP1 PUSH4 0x95EA7B3 PUSH1 0xE0 SHL SWAP1 PUSH1 0x64 ADD PUSH2 0x1274 JUMP JUMPDEST PUSH1 0x0 DUP1 SLOAD PUSH1 0x1 PUSH1 0x1 PUSH1 0xA0 SHL SUB DUP4 DUP2 AND PUSH1 0x1 PUSH1 0x1 PUSH1 0xA0 SHL SUB NOT DUP4 AND DUP2 OR DUP5 SSTORE PUSH1 0x40 MLOAD SWAP2 SWAP1 SWAP3 AND SWAP3 DUP4 SWAP2 PUSH32 0x8BE0079C531659141344CD1FD0A4F28419497F9722A3DAAFE3B4186F6B6457E0 SWAP2 SWAP1 LOG3 POP POP JUMP JUMPDEST PUSH1 0x40 MLOAD PUSH1 0x1 PUSH1 0x1 PUSH1 0xA0 SHL SUB DUP1 DUP6 AND PUSH1 0x24 DUP4 ADD MSTORE DUP4 AND PUSH1 0x44 DUP3 ADD MSTORE PUSH1 0x64 DUP2 ADD DUP3 SWAP1 MSTORE PUSH2 0x1204 SWAP1 DUP6 SWAP1 PUSH4 0x23B872DD PUSH1 0xE0 SHL SWAP1 PUSH1 0x84 ADD PUSH2 0x1274 JUMP JUMPDEST PUSH1 0x0 PUSH2 0x149D DUP3 PUSH1 0x40 MLOAD DUP1 PUSH1 0x40 ADD PUSH1 0x40 MSTORE DUP1 PUSH1 0x20 DUP2 MSTORE PUSH1 0x20 ADD PUSH32 0x5361666545524332303A206C6F772D6C6576656C2063616C6C206661696C6564 DUP2 MSTORE POP DUP6 PUSH1 0x1 PUSH1 0x1 PUSH1 0xA0 SHL SUB AND PUSH2 0x151A SWAP1 SWAP3 SWAP2 SWAP1 PUSH4 0xFFFFFFFF AND JUMP JUMPDEST DUP1 MLOAD SWAP1 SWAP2 POP ISZERO PUSH2 0x1243 JUMPI DUP1 DUP1 PUSH1 0x20 ADD SWAP1 MLOAD DUP2 ADD SWAP1 PUSH2 0x14BB SWAP2 SWAP1 PUSH2 0x182E JUMP JUMPDEST PUSH2 0x1243 JUMPI PUSH1 0x40 MLOAD PUSH3 0x461BCD PUSH1 0xE5 SHL DUP2 MSTORE PUSH1 0x20 PUSH1 0x4 DUP3 ADD MSTORE PUSH1 0x2A PUSH1 0x24 DUP3 ADD MSTORE PUSH32 0x5361666545524332303A204552433230206F7065726174696F6E20646964206E PUSH1 0x44 DUP3 ADD MSTORE PUSH10 0x1BDD081CDD58D8D95959 PUSH1 0xB2 SHL PUSH1 0x64 DUP3 ADD MSTORE PUSH1 0x84 ADD PUSH2 0x591 JUMP JUMPDEST PUSH1 0x60 PUSH2 0x1529 DUP5 DUP5 PUSH1 0x0 DUP6 PUSH2 0x1531 JUMP JUMPDEST SWAP5 SWAP4 POP POP POP POP JUMP JUMPDEST PUSH1 0x60 DUP3 SELFBALANCE LT ISZERO PUSH2 0x1592 JUMPI PUSH1 0x40 MLOAD PUSH3 0x461BCD PUSH1 0xE5 SHL DUP2 MSTORE PUSH1 0x20 PUSH1 0x4 DUP3 ADD MSTORE PUSH1 0x26 PUSH1 0x24 DUP3 ADD MSTORE PUSH32 0x416464726573733A20696E73756666696369656E742062616C616E636520666F PUSH1 0x44 DUP3 ADD MSTORE PUSH6 0x1C8818D85B1B PUSH1 0xD2 SHL PUSH1 0x64 DUP3 ADD MSTORE PUSH1 0x84 ADD PUSH2 0x591 JUMP JUMPDEST DUP5 EXTCODESIZE PUSH2 0x15E0 JUMPI PUSH1 0x40 MLOAD PUSH3 0x461BCD PUSH1 0xE5 SHL DUP2 MSTORE PUSH1 0x20 PUSH1 0x4 DUP3 ADD MSTORE PUSH1 0x1D PUSH1 0x24 DUP3 ADD MSTORE PUSH32 0x416464726573733A2063616C6C20746F206E6F6E2D636F6E7472616374000000 PUSH1 0x44 DUP3 ADD MSTORE PUSH1 0x64 ADD PUSH2 0x591 JUMP JUMPDEST PUSH1 0x0 DUP1 DUP7 PUSH1 0x1 PUSH1 0x1 PUSH1 0xA0 SHL SUB AND DUP6 DUP8 PUSH1 0x40 MLOAD PUSH2 0x15FC SWAP2 SWAP1 PUSH2 0x1918 JUMP JUMPDEST PUSH1 0x0 PUSH1 0x40 MLOAD DUP1 DUP4 SUB DUP2 DUP6 DUP8 GAS CALL SWAP3 POP POP POP RETURNDATASIZE DUP1 PUSH1 0x0 DUP2 EQ PUSH2 0x1639 JUMPI PUSH1 0x40 MLOAD SWAP2 POP PUSH1 0x1F NOT PUSH1 0x3F RETURNDATASIZE ADD AND DUP3 ADD PUSH1 0x40 MSTORE RETURNDATASIZE DUP3 MSTORE RETURNDATASIZE PUSH1 0x0 PUSH1 0x20 DUP5 ADD RETURNDATACOPY PUSH2 0x163E JUMP JUMPDEST PUSH1 0x60 SWAP2 POP JUMPDEST POP SWAP2 POP SWAP2 POP PUSH2 0x164E DUP3 DUP3 DUP7 PUSH2 0x1659 JUMP JUMPDEST SWAP8 SWAP7 POP POP POP POP POP POP POP JUMP JUMPDEST PUSH1 0x60 DUP4 ISZERO PUSH2 0x1668 JUMPI POP DUP2 PUSH2 0x10EA JUMP JUMPDEST DUP3 MLOAD ISZERO PUSH2 0x1678 JUMPI DUP3 MLOAD DUP1 DUP5 PUSH1 0x20 ADD REVERT JUMPDEST DUP2 PUSH1 0x40 MLOAD PUSH3 0x461BCD PUSH1 0xE5 SHL DUP2 MSTORE PUSH1 0x4 ADD PUSH2 0x591 SWAP2 SWAP1 PUSH2 0x1934 JUMP JUMPDEST PUSH1 0x0 PUSH1 0x20 DUP3 DUP5 SUB SLT ISZERO PUSH2 0x16A4 JUMPI PUSH1 0x0 DUP1 REVERT JUMPDEST POP CALLDATALOAD SWAP2 SWAP1 POP JUMP JUMPDEST PUSH1 0x1 PUSH1 0x1 PUSH1 0xA0 SHL SUB DUP2 AND DUP2 EQ PUSH2 0x10DB JUMPI PUSH1 0x0 DUP1 REVERT JUMPDEST PUSH1 0x0 DUP1 PUSH1 0x40 DUP4 DUP6 SUB SLT ISZERO PUSH2 0x16D3 JUMPI PUSH1 0x0 DUP1 REVERT JUMPDEST DUP3 CALLDATALOAD SWAP2 POP PUSH1 0x20 DUP4 ADD CALLDATALOAD PUSH2 0x16E5 DUP2 PUSH2 0x16AB JUMP JUMPDEST DUP1 SWAP2 POP POP SWAP3 POP SWAP3 SWAP1 POP JUMP JUMPDEST DUP1 ISZERO ISZERO DUP2 EQ PUSH2 0x10DB JUMPI PUSH1 0x0 DUP1 REVERT JUMPDEST PUSH1 0x0 DUP1 PUSH1 0x0 PUSH1 0x60 DUP5 DUP7 SUB SLT ISZERO PUSH2 0x1713 JUMPI PUSH1 0x0 DUP1 REVERT JUMPDEST DUP4 CALLDATALOAD SWAP3 POP PUSH1 0x20 DUP5 ADD CALLDATALOAD PUSH2 0x1725 DUP2 PUSH2 0x16AB JUMP JUMPDEST SWAP2 POP PUSH1 0x40 DUP5 ADD CALLDATALOAD PUSH2 0x1735 DUP2 PUSH2 0x16F0 JUMP JUMPDEST DUP1 SWAP2 POP POP SWAP3 POP SWAP3 POP SWAP3 JUMP JUMPDEST PUSH1 0x0 PUSH1 0x20 DUP3 DUP5 SUB SLT ISZERO PUSH2 0x1752 JUMPI PUSH1 0x0 DUP1 REVERT JUMPDEST DUP2 CALLDATALOAD PUSH2 0x10EA DUP2 PUSH2 0x16AB JUMP JUMPDEST PUSH1 0x0 DUP1 PUSH1 0x40 DUP4 DUP6 SUB SLT ISZERO PUSH2 0x1770 JUMPI PUSH1 0x0 DUP1 REVERT JUMPDEST POP POP DUP1 CALLDATALOAD SWAP3 PUSH1 0x20 SWAP1 SWAP2 ADD CALLDATALOAD SWAP2 POP JUMP JUMPDEST PUSH1 0x0 DUP1 PUSH1 0x0 PUSH1 0x60 DUP5 DUP7 SUB SLT ISZERO PUSH2 0x1794 JUMPI PUSH1 0x0 DUP1 REVERT JUMPDEST DUP4 CALLDATALOAD SWAP3 POP PUSH1 0x20 DUP5 ADD CALLDATALOAD SWAP2 POP PUSH1 0x40 DUP5 ADD CALLDATALOAD PUSH2 0x1735 DUP2 PUSH2 0x16F0 JUMP JUMPDEST PUSH4 0x4E487B71 PUSH1 0xE0 SHL PUSH1 0x0 MSTORE PUSH1 0x32 PUSH1 0x4 MSTORE PUSH1 0x24 PUSH1 0x0 REVERT JUMPDEST PUSH1 0x0 PUSH1 0x20 DUP3 DUP5 SUB SLT ISZERO PUSH2 0x17D5 JUMPI PUSH1 0x0 DUP1 REVERT JUMPDEST POP MLOAD SWAP2 SWAP1 POP JUMP JUMPDEST PUSH1 0x20 DUP1 DUP3 MSTORE DUP2 DUP2 ADD MSTORE PUSH32 0x4F776E61626C653A2063616C6C6572206973206E6F7420746865206F776E6572 PUSH1 0x40 DUP3 ADD MSTORE PUSH1 0x60 ADD SWAP1 JUMP JUMPDEST PUSH1 0x0 PUSH1 0x20 DUP3 DUP5 SUB SLT ISZERO PUSH2 0x1823 JUMPI PUSH1 0x0 DUP1 REVERT JUMPDEST DUP2 MLOAD PUSH2 0x10EA DUP2 PUSH2 0x16AB JUMP JUMPDEST PUSH1 0x0 PUSH1 0x20 DUP3 DUP5 SUB SLT ISZERO PUSH2 0x1840 JUMPI PUSH1 0x0 DUP1 REVERT JUMPDEST DUP2 MLOAD PUSH2 0x10EA DUP2 PUSH2 0x16F0 JUMP JUMPDEST PUSH4 0x4E487B71 PUSH1 0xE0 SHL PUSH1 0x0 MSTORE PUSH1 0x11 PUSH1 0x4 MSTORE PUSH1 0x24 PUSH1 0x0 REVERT JUMPDEST PUSH1 0x0 PUSH1 0x0 NOT DUP3 EQ ISZERO PUSH2 0x1875 JUMPI PUSH2 0x1875 PUSH2 0x184B JUMP JUMPDEST POP PUSH1 0x1 ADD SWAP1 JUMP JUMPDEST PUSH1 0x0 DUP2 PUSH1 0x0 NOT DIV DUP4 GT DUP3 ISZERO ISZERO AND ISZERO PUSH2 0x1896 JUMPI PUSH2 0x1896 PUSH2 0x184B JUMP JUMPDEST POP MUL SWAP1 JUMP JUMPDEST PUSH1 0x0 DUP3 PUSH2 0x18B8 JUMPI PUSH4 0x4E487B71 PUSH1 0xE0 SHL PUSH1 0x0 MSTORE PUSH1 0x12 PUSH1 0x4 MSTORE PUSH1 0x24 PUSH1 0x0 REVERT JUMPDEST POP DIV SWAP1 JUMP JUMPDEST PUSH1 0x0 DUP3 NOT DUP3 GT ISZERO PUSH2 0x18D0 JUMPI PUSH2 0x18D0 PUSH2 0x184B JUMP JUMPDEST POP ADD SWAP1 JUMP JUMPDEST PUSH1 0x0 DUP3 DUP3 LT ISZERO PUSH2 0x18E7 JUMPI PUSH2 0x18E7 PUSH2 0x184B JUMP JUMPDEST POP SUB SWAP1 JUMP JUMPDEST PUSH1 0x0 JUMPDEST DUP4 DUP2 LT ISZERO PUSH2 0x1907 JUMPI DUP2 DUP2 ADD MLOAD DUP4 DUP3 ADD MSTORE PUSH1 0x20 ADD PUSH2 0x18EF JUMP JUMPDEST DUP4 DUP2 GT ISZERO PUSH2 0x1204 JUMPI POP POP PUSH1 0x0 SWAP2 ADD MSTORE JUMP JUMPDEST PUSH1 0x0 DUP3 MLOAD PUSH2 0x192A DUP2 DUP5 PUSH1 0x20 DUP8 ADD PUSH2 0x18EC JUMP JUMPDEST SWAP2 SWAP1 SWAP2 ADD SWAP3 SWAP2 POP POP JUMP JUMPDEST PUSH1 0x20 DUP2 MSTORE PUSH1 0x0 DUP3 MLOAD DUP1 PUSH1 0x20 DUP5 ADD MSTORE PUSH2 0x1953 DUP2 PUSH1 0x40 DUP6 ADD PUSH1 0x20 DUP8 ADD PUSH2 0x18EC JUMP JUMPDEST PUSH1 0x1F ADD PUSH1 0x1F NOT AND SWAP2 SWAP1 SWAP2 ADD PUSH1 0x40 ADD SWAP3 SWAP2 POP POP JUMP INVALID LOG2 PUSH5 0x6970667358 0x22 SLT KECCAK256 RETURNDATACOPY PUSH7 0xCED689348881FB 0xA6 0xAA SWAP14 CALLER 0x22 0x2F DUP11 DUP9 PUSH8 0xAB14E0BF1553BBAD CODESIZE 0xF8 SWAP8 0xD5 0xF SHR PUSH5 0x736F6C6343 STOP ADDMOD 0xC STOP CALLER "
        },
        "methodIdentifiers": {
          "BONUS_MULTIPLIER()": "8aa28550",
          "add(uint256,address,bool)": "1eaaa045",
          "bonusEndBlock()": "1aed6553",
          "deposit(uint256,uint256)": "e2bbb158",
          "dev(address)": "8d88a90e",
          "devaddr()": "d49e77cd",
          "emergencyWithdraw(uint256)": "5312ea8e",
          "getMultiplier(uint256,uint256)": "8dbb1e3a",
          "massUpdatePools()": "630b5ba1",
          "migrate(uint256)": "454b0608",
          "migrator()": "7cd07e47",
          "owner()": "8da5cb5b",
          "pendingSushi(uint256,address)": "195426ec",
          "poolInfo(uint256)": "1526fe27",
          "poolLength()": "081e3eda",
          "renounceOwnership()": "715018a6",
          "set(uint256,uint256,bool)": "64482f79",
          "setMigrator(address)": "23cf3118",
          "startBlock()": "48cd4cb1",
          "sushi()": "0a087903",
          "sushiPerBlock()": "b0bcf42a",
          "totalAllocPoint()": "17caf6f1",
          "transferOwnership(address)": "f2fde38b",
          "updatePool(uint256)": "51eb05a6",
          "userInfo(uint256,address)": "93f1a40b",
          "withdraw(uint256,uint256)": "441a3e70"
        }
      }
    }
  }
}