{
  "_format": "hh-sol-artifact-1",
  "contractName": "Score",
  "sourceName": "contracts/Score.sol",
  "abi": [
    {
      "inputs": [],
      "stateMutability": "nonpayable",
      "type": "constructor"
    },
    {
      "anonymous": false,
      "inputs": [
        {
          "indexed": true,
          "internalType": "address",
          "name": "sender",
          "type": "address"
        },
        {
          "indexed": true,
          "internalType": "address",
          "name": "newTeacher",
          "type": "address"
        },
        {
          "indexed": false,
          "internalType": "uint256",
          "name": "time",
          "type": "uint256"
        }
      ],
      "name": "AddTeacher",
      "type": "event"
    },
    {
      "anonymous": false,
      "inputs": [
        {
          "indexed": true,
          "internalType": "address",
          "name": "teacherAddr",
          "type": "address"
        },
        {
          "indexed": true,
          "internalType": "address",
          "name": "studentAddr",
          "type": "address"
        },
        {
          "indexed": false,
          "internalType": "uint256",
          "name": "score",
          "type": "uint256"
        },
        {
          "indexed": false,
          "internalType": "uint256",
          "name": "time",
          "type": "uint256"
        }
      ],
      "name": "StudentScore",
      "type": "event"
    },
    {
      "inputs": [
        {
          "internalType": "address",
          "name": "_addr",
          "type": "address"
        }
      ],
      "name": "addTeacher",
      "outputs": [],
      "stateMutability": "nonpayable",
      "type": "function"
    },
    {
      "inputs": [
        {
          "internalType": "address",
          "name": "_addr",
          "type": "address"
        },
        {
          "internalType": "uint256",
          "name": "_score",
          "type": "uint256"
        }
      ],
      "name": "setStudentScore",
      "outputs": [],
      "stateMutability": "nonpayable",
      "type": "function"
    },
    {
      "inputs": [
        {
          "internalType": "address",
          "name": "",
          "type": "address"
        }
      ],
      "name": "student",
      "outputs": [
        {
          "internalType": "uint256",
          "name": "",
          "type": "uint256"
        }
      ],
      "stateMutability": "view",
      "type": "function"
    },
    {
      "inputs": [
        {
          "internalType": "address",
          "name": "",
          "type": "address"
        }
      ],
      "name": "teacherAddr",
      "outputs": [
        {
          "internalType": "bool",
          "name": "",
          "type": "bool"
        }
      ],
      "stateMutability": "view",
      "type": "function"
    }
  ],
  "bytecode": "0x608060405234801561001057600080fd5b50336000908152600160208190526040909120805460ff191690911790556103278061003d6000396000f3fe608060405234801561001057600080fd5b506004361061004c5760003560e01c80632af38e34146100515780633bc6e3091461008957806359738b8d1461009e578063daadd00f146100b1575b600080fd5b61007461005f3660046102a5565b60016020526000908152604090205460ff1681565b60405190151581526020015b60405180910390f35b61009c6100973660046102a5565b6100df565b005b61009c6100ac3660046102c7565b61018f565b6100d16100bf3660046102a5565b60006020819052908152604090205481565b604051908152602001610080565b3360009081526001602052604090205460ff166101325760405162461bcd60e51b815260206004820152600c60248201526b6e6f20617574686f7269747960a01b60448201526064015b60405180910390fd5b6001600160a01b038116600081815260016020818152604092839020805460ff1916909217909155905142815233917f623f2f12277334cbba131e1bc37a1cca00bb01ffd1216afad46c2e41514563c0910160405180910390a350565b3360009081526001602052604090205460ff166101dd5760405162461bcd60e51b815260206004820152600c60248201526b6e6f20617574686f7269747960a01b6044820152606401610129565b606481111561022e5760405162461bcd60e51b815260206004820152601d60248201527f73636f72652063616e6e6f74206265206c657373207468616e203130300000006044820152606401610129565b6001600160a01b038216600081815260208181526040918290208490558151848152429181019190915233917f125549727220c2ff5d6a50430034a670f7a59d413a178a2c879fe824ae14ec55910160405180910390a35050565b80356001600160a01b03811681146102a057600080fd5b919050565b6000602082840312156102b757600080fd5b6102c082610289565b9392505050565b600080604083850312156102da57600080fd5b6102e383610289565b94602093909301359350505056fea2646970667358221220be04d4cd319bf4e253b2c25013e9e444c242dc7894fdc0110914aaea3a8e6f6464736f6c634300080c0033",
  "linkReferences": {},
  "deployedLinkReferences": {}
}