{
  "_format": "hh-sol-artifact-1",
  "contractName": "MasterChef",
  "sourceName": "contracts/MasterChef.sol",
  "abi": [
    {
      "inputs": [
        {
          "internalType": "contract SushiToken",
          "name": "_sushi",
          "type": "address"
        },
        {
          "internalType": "address",
          "name": "_devaddr",
          "type": "address"
        },
        {
          "internalType": "uint256",
          "name": "_sushiPerBlock",
          "type": "uint256"
        },
        {
          "internalType": "uint256",
          "name": "_startBlock",
          "type": "uint256"
        },
        {
          "internalType": "uint256",
          "name": "_bonusEndBlock",
          "type": "uint256"
        }
      ],
      "stateMutability": "nonpayable",
      "type": "constructor"
    },
    {
      "anonymous": false,
      "inputs": [
        {
          "indexed": true,
          "internalType": "address",
          "name": "user",
          "type": "address"
        },
        {
          "indexed": true,
          "internalType": "uint256",
          "name": "pid",
          "type": "uint256"
        },
        {
          "indexed": false,
          "internalType": "uint256",
          "name": "amount",
          "type": "uint256"
        }
      ],
      "name": "Deposit",
      "type": "event"
    },
    {
      "anonymous": false,
      "inputs": [
        {
          "indexed": true,
          "internalType": "address",
          "name": "user",
          "type": "address"
        },
        {
          "indexed": true,
          "internalType": "uint256",
          "name": "pid",
          "type": "uint256"
        },
        {
          "indexed": false,
          "internalType": "uint256",
          "name": "amount",
          "type": "uint256"
        }
      ],
      "name": "EmergencyWithdraw",
      "type": "event"
    },
    {
      "anonymous": false,
      "inputs": [
        {
          "indexed": true,
          "internalType": "address",
          "name": "previousOwner",
          "type": "address"
        },
        {
          "indexed": true,
          "internalType": "address",
          "name": "newOwner",
          "type": "address"
        }
      ],
      "name": "OwnershipTransferred",
      "type": "event"
    },
    {
      "anonymous": false,
      "inputs": [
        {
          "indexed": true,
          "internalType": "address",
          "name": "user",
          "type": "address"
        },
        {
          "indexed": true,
          "internalType": "uint256",
          "name": "pid",
          "type": "uint256"
        },
        {
          "indexed": false,
          "internalType": "uint256",
          "name": "amount",
          "type": "uint256"
        }
      ],
      "name": "Withdraw",
      "type": "event"
    },
    {
      "inputs": [],
      "name": "BONUS_MULTIPLIER",
      "outputs": [
        {
          "internalType": "uint256",
          "name": "",
          "type": "uint256"
        }
      ],
      "stateMutability": "view",
      "type": "function"
    },
    {
      "inputs": [
        {
          "internalType": "uint256",
          "name": "_allocPoint",
          "type": "uint256"
        },
        {
          "internalType": "contract IERC20",
          "name": "_lpToken",
          "type": "address"
        },
        {
          "internalType": "bool",
          "name": "_withUpdate",
          "type": "bool"
        }
      ],
      "name": "add",
      "outputs": [],
      "stateMutability": "nonpayable",
      "type": "function"
    },
    {
      "inputs": [],
      "name": "bonusEndBlock",
      "outputs": [
        {
          "internalType": "uint256",
          "name": "",
          "type": "uint256"
        }
      ],
      "stateMutability": "view",
      "type": "function"
    },
    {
      "inputs": [
        {
          "internalType": "uint256",
          "name": "_pid",
          "type": "uint256"
        },
        {
          "internalType": "uint256",
          "name": "_amount",
          "type": "uint256"
        }
      ],
      "name": "deposit",
      "outputs": [],
      "stateMutability": "nonpayable",
      "type": "function"
    },
    {
      "inputs": [
        {
          "internalType": "address",
          "name": "_devaddr",
          "type": "address"
        }
      ],
      "name": "dev",
      "outputs": [],
      "stateMutability": "nonpayable",
      "type": "function"
    },
    {
      "inputs": [],
      "name": "devaddr",
      "outputs": [
        {
          "internalType": "address",
          "name": "",
          "type": "address"
        }
      ],
      "stateMutability": "view",
      "type": "function"
    },
    {
      "inputs": [
        {
          "internalType": "uint256",
          "name": "_pid",
          "type": "uint256"
        }
      ],
      "name": "emergencyWithdraw",
      "outputs": [],
      "stateMutability": "nonpayable",
      "type": "function"
    },
    {
      "inputs": [
        {
          "internalType": "uint256",
          "name": "_from",
          "type": "uint256"
        },
        {
          "internalType": "uint256",
          "name": "_to",
          "type": "uint256"
        }
      ],
      "name": "getMultiplier",
      "outputs": [
        {
          "internalType": "uint256",
          "name": "",
          "type": "uint256"
        }
      ],
      "stateMutability": "view",
      "type": "function"
    },
    {
      "inputs": [],
      "name": "massUpdatePools",
      "outputs": [],
      "stateMutability": "nonpayable",
      "type": "function"
    },
    {
      "inputs": [
        {
          "internalType": "uint256",
          "name": "_pid",
          "type": "uint256"
        }
      ],
      "name": "migrate",
      "outputs": [],
      "stateMutability": "nonpayable",
      "type": "function"
    },
    {
      "inputs": [],
      "name": "migrator",
      "outputs": [
        {
          "internalType": "contract IMigratorChef",
          "name": "",
          "type": "address"
        }
      ],
      "stateMutability": "view",
      "type": "function"
    },
    {
      "inputs": [],
      "name": "owner",
      "outputs": [
        {
          "internalType": "address",
          "name": "",
          "type": "address"
        }
      ],
      "stateMutability": "view",
      "type": "function"
    },
    {
      "inputs": [
        {
          "internalType": "uint256",
          "name": "_pid",
          "type": "uint256"
        },
        {
          "internalType": "address",
          "name": "_user",
          "type": "address"
        }
      ],
      "name": "pendingSushi",
      "outputs": [
        {
          "internalType": "uint256",
          "name": "",
          "type": "uint256"
        }
      ],
      "stateMutability": "view",
      "type": "function"
    },
    {
      "inputs": [
        {
          "internalType": "uint256",
          "name": "",
          "type": "uint256"
        }
      ],
      "name": "poolInfo",
      "outputs": [
        {
          "internalType": "contract IERC20",
          "name": "lpToken",
          "type": "address"
        },
        {
          "internalType": "uint256",
          "name": "allocPoint",
          "type": "uint256"
        },
        {
          "internalType": "uint256",
          "name": "lastRewardBlock",
          "type": "uint256"
        },
        {
          "internalType": "uint256",
          "name": "accSushiPerShare",
          "type": "uint256"
        }
      ],
      "stateMutability": "view",
      "type": "function"
    },
    {
      "inputs": [],
      "name": "poolLength",
      "outputs": [
        {
          "internalType": "uint256",
          "name": "",
          "type": "uint256"
        }
      ],
      "stateMutability": "view",
      "type": "function"
    },
    {
      "inputs": [],
      "name": "renounceOwnership",
      "outputs": [],
      "stateMutability": "nonpayable",
      "type": "function"
    },
    {
      "inputs": [
        {
          "internalType": "uint256",
          "name": "_pid",
          "type": "uint256"
        },
        {
          "internalType": "uint256",
          "name": "_allocPoint",
          "type": "uint256"
        },
        {
          "internalType": "bool",
          "name": "_withUpdate",
          "type": "bool"
        }
      ],
      "name": "set",
      "outputs": [],
      "stateMutability": "nonpayable",
      "type": "function"
    },
    {
      "inputs": [
        {
          "internalType": "contract IMigratorChef",
          "name": "_migrator",
          "type": "address"
        }
      ],
      "name": "setMigrator",
      "outputs": [],
      "stateMutability": "nonpayable",
      "type": "function"
    },
    {
      "inputs": [],
      "name": "startBlock",
      "outputs": [
        {
          "internalType": "uint256",
          "name": "",
          "type": "uint256"
        }
      ],
      "stateMutability": "view",
      "type": "function"
    },
    {
      "inputs": [],
      "name": "sushi",
      "outputs": [
        {
          "internalType": "contract SushiToken",
          "name": "",
          "type": "address"
        }
      ],
      "stateMutability": "view",
      "type": "function"
    },
    {
      "inputs": [],
      "name": "sushiPerBlock",
      "outputs": [
        {
          "internalType": "uint256",
          "name": "",
          "type": "uint256"
        }
      ],
      "stateMutability": "view",
      "type": "function"
    },
    {
      "inputs": [],
      "name": "totalAllocPoint",
      "outputs": [
        {
          "internalType": "uint256",
          "name": "",
          "type": "uint256"
        }
      ],
      "stateMutability": "view",
      "type": "function"
    },
    {
      "inputs": [
        {
          "internalType": "address",
          "name": "newOwner",
          "type": "address"
        }
      ],
      "name": "transferOwnership",
      "outputs": [],
      "stateMutability": "nonpayable",
      "type": "function"
    },
    {
      "inputs": [
        {
          "internalType": "uint256",
          "name": "_pid",
          "type": "uint256"
        }
      ],
      "name": "updatePool",
      "outputs": [],
      "stateMutability": "nonpayable",
      "type": "function"
    },
    {
      "inputs": [
        {
          "internalType": "uint256",
          "name": "",
          "type": "uint256"
        },
        {
          "internalType": "address",
          "name": "",
          "type": "address"
        }
      ],
      "name": "userInfo",
      "outputs": [
        {
          "internalType": "uint256",
          "name": "amount",
          "type": "uint256"
        },
        {
          "internalType": "uint256",
          "name": "rewardDebt",
          "type": "uint256"
        }
      ],
      "stateMutability": "view",
      "type": "function"
    },
    {
      "inputs": [
        {
          "internalType": "uint256",
          "name": "_pid",
          "type": "uint256"
        },
        {
          "internalType": "uint256",
          "name": "_amount",
          "type": "uint256"
        }
      ],
      "name": "withdraw",
      "outputs": [],
      "stateMutability": "nonpayable",
      "type": "function"
    }
  ],
  "bytecode": "0x608060405260006008553480156200001657600080fd5b5060405162001af138038062001af18339810160408190526200003991620000ec565b620000443362000083565b600180546001600160a01b039687166001600160a01b031991821617909155600280549590961694169390931790935560045560035560095562000144565b600080546001600160a01b038381166001600160a01b0319831681178455604051919092169283917f8be0079c531659141344cd1fd0a4f28419497f9722a3daafe3b4186f6b6457e09190a35050565b6001600160a01b0381168114620000e957600080fd5b50565b600080600080600060a086880312156200010557600080fd5b85516200011281620000d3565b60208701519095506200012581620000d3565b6040870151606088015160809098015196999198509695945092505050565b61199d80620001546000396000f3fe608060405234801561001057600080fd5b506004361061018e5760003560e01c8063630b5ba1116100de5780638da5cb5b11610097578063b0bcf42a11610071578063b0bcf42a14610370578063d49e77cd14610379578063e2bbb1581461038c578063f2fde38b1461039f57600080fd5b80638da5cb5b146103055780638dbb1e3a1461031657806393f1a40b1461032957600080fd5b8063630b5ba1146102b457806364482f79146102bc578063715018a6146102cf5780637cd07e47146102d75780638aa28550146102ea5780638d88a90e146102f257600080fd5b80631eaaa0451161014b578063454b060811610125578063454b06081461027257806348cd4cb11461028557806351eb05a61461028e5780635312ea8e146102a157600080fd5b80631eaaa0451461023757806323cf31181461024c578063441a3e701461025f57600080fd5b8063081e3eda146101935780630a087903146101aa5780631526fe27146101d557806317caf6f114610212578063195426ec1461021b5780631aed65531461022e575b600080fd5b6006545b6040519081526020015b60405180910390f35b6001546101bd906001600160a01b031681565b6040516001600160a01b0390911681526020016101a1565b6101e86101e3366004611692565b6103b2565b604080516001600160a01b03909516855260208501939093529183015260608201526080016101a1565b61019760085481565b6101976102293660046116c0565b6103f6565b61019760035481565b61024a6102453660046116fe565b610567565b005b61024a61025a366004611740565b6106bd565b61024a61026d36600461175d565b610709565b61024a610280366004611692565b610851565b61019760095481565b61024a61029c366004611692565b610a8c565b61024a6102af366004611692565b610cb8565b61024a610d5a565b61024a6102ca36600461177f565b610d85565b61024a610e34565b6005546101bd906001600160a01b031681565b610197600a81565b61024a610300366004611740565b610e6a565b6000546001600160a01b03166101bd565b61019761032436600461175d565b610ed2565b61035b6103373660046116c0565b60076020908152600092835260408084209091529082529020805460019091015482565b604080519283526020830191909152016101a1565b61019760045481565b6002546101bd906001600160a01b031681565b61024a61039a36600461175d565b610f38565b61024a6103ad366004611740565b611043565b600681815481106103c257600080fd5b600091825260209091206004909102018054600182015460028301546003909301546001600160a01b039092169350919084565b6000806006848154811061040c5761040c6117ad565b600091825260208083208784526007825260408085206001600160a01b038981168752935280852060049485029092016003810154815492516370a0823160e01b8152309681019690965290965091949193919216906370a0823190602401602060405180830381865afa158015610488573d6000803e3d6000fd5b505050506040513d601f19601f820116820180604052508101906104ac91906117c3565b90508360020154431180156104c057508015155b1561052c5760006104d5856002015443610ed2565b9050600061050860085461050288600101546104fc600454876110de90919063ffffffff16565b906110de565b906110f1565b9050610527610520846105028464e8d4a510006110de565b85906110fd565b935050505b61055a836001015461055464e8d4a510006105028688600001546110de90919063ffffffff16565b90611109565b9450505050505b92915050565b6000546001600160a01b0316331461059a5760405162461bcd60e51b8152600401610591906117dc565b60405180910390fd5b80156105a8576105a8610d5a565b600060095443116105bb576009546105bd565b435b6008549091506105cd90856110fd565b600855604080516080810182526001600160a01b0394851681526020810195865290810191825260006060820181815260068054600181018255925291517ff652222313e28459528d920b65115c16c04f3efc82aaedc97be59f3f377c0d3f600490920291820180546001600160a01b031916919096161790945593517ff652222313e28459528d920b65115c16c04f3efc82aaedc97be59f3f377c0d40840155517ff652222313e28459528d920b65115c16c04f3efc82aaedc97be59f3f377c0d418301555090517ff652222313e28459528d920b65115c16c04f3efc82aaedc97be59f3f377c0d4290910155565b6000546001600160a01b031633146106e75760405162461bcd60e51b8152600401610591906117dc565b600580546001600160a01b0319166001600160a01b0392909216919091179055565b60006006838154811061071e5761071e6117ad565b60009182526020808320868452600782526040808520338652909252922080546004909202909201925083111561078c5760405162461bcd60e51b81526020600482015260126024820152711dda5d1a191c985dce881b9bdd0819dbdbd960721b6044820152606401610591565b61079584610a8c565b60006107c3826001015461055464e8d4a51000610502876003015487600001546110de90919063ffffffff16565b90506107cf3382611115565b81546107db9085611109565b80835560038401546107f89164e8d4a510009161050291906110de565b60018301558254610813906001600160a01b03163386611248565b604051848152859033907ff279e6a1f5e320cca91135676d9cb6e44ca8a08c0b88342bcdb1144f6511b5689060200160405180910390a35050505050565b6005546001600160a01b03166108a05760405162461bcd60e51b815260206004820152601460248201527336b4b3b930ba329d1037379036b4b3b930ba37b960611b6044820152606401610591565b6000600682815481106108b5576108b56117ad565b60009182526020822060049182020180546040516370a0823160e01b815230938101939093529093506001600160a01b0316919082906370a0823190602401602060405180830381865afa158015610911573d6000803e3d6000fd5b505050506040513d601f19601f8201168201806040525081019061093591906117c3565b600554909150610952906001600160a01b038481169116836112ab565b60055460405163ce5494bb60e01b81526001600160a01b038481166004830152600092169063ce5494bb906024016020604051808303816000875af115801561099f573d6000803e3d6000fd5b505050506040513d601f19601f820116820180604052508101906109c39190611811565b6040516370a0823160e01b81523060048201529091506001600160a01b038216906370a0823190602401602060405180830381865afa158015610a0a573d6000803e3d6000fd5b505050506040513d601f19601f82011682018060405250810190610a2e91906117c3565b8214610a6b5760405162461bcd60e51b815260206004820152600c60248201526b1b5a59dc985d194e8818985960a21b6044820152606401610591565b83546001600160a01b0319166001600160a01b039190911617909255505050565b600060068281548110610aa157610aa16117ad565b9060005260206000209060040201905080600201544311610ac0575050565b80546040516370a0823160e01b81523060048201526000916001600160a01b0316906370a0823190602401602060405180830381865afa158015610b08573d6000803e3d6000fd5b505050506040513d601f19601f82011682018060405250810190610b2c91906117c3565b905080610b3e57504360029091015550565b6000610b4e836002015443610ed2565b90506000610b7560085461050286600101546104fc600454876110de90919063ffffffff16565b6001546002549192506001600160a01b03908116916340c10f199116610b9c84600a6110f1565b6040516001600160e01b031960e085901b1681526001600160a01b03909216600483015260248201526044016020604051808303816000875af1158015610be7573d6000803e3d6000fd5b505050506040513d601f19601f82011682018060405250810190610c0b919061182e565b506001546040516340c10f1960e01b8152306004820152602481018390526001600160a01b03909116906340c10f19906044016020604051808303816000875af1158015610c5d573d6000803e3d6000fd5b505050506040513d601f19601f82011682018060405250810190610c81919061182e565b50610ca3610c98846105028464e8d4a510006110de565b6003860154906110fd565b60038501555050436002909201919091555050565b600060068281548110610ccd57610ccd6117ad565b60009182526020808320858452600782526040808520338087529352909320805460049093029093018054909450610d12926001600160a01b03919091169190611248565b8054604051908152839033907fbb757047c2b5f3974fe26b7c10f732e7bce710b0952a71082702781e62ae05959060200160405180910390a360008082556001909101555050565b60065460005b81811015610d8157610d7181610a8c565b610d7a81611861565b9050610d60565b5050565b6000546001600160a01b03163314610daf5760405162461bcd60e51b8152600401610591906117dc565b8015610dbd57610dbd610d5a565b610e0082610dfa60068681548110610dd757610dd76117ad565b90600052602060002090600402016001015460085461110990919063ffffffff16565b906110fd565b6008819055508160068481548110610e1a57610e1a6117ad565b906000526020600020906004020160010181905550505050565b6000546001600160a01b03163314610e5e5760405162461bcd60e51b8152600401610591906117dc565b610e6860006113c0565b565b6002546001600160a01b03163314610eb05760405162461bcd60e51b81526020600482015260096024820152686465763a207775743f60b81b6044820152606401610591565b600280546001600160a01b0319166001600160a01b0392909216919091179055565b60006003548211610ef357610eec600a6104fc8486611109565b9050610561565b6003548310610f0657610eec8284611109565b610eec610f1e6003548461110990919063ffffffff16565b610dfa600a6104fc8760035461110990919063ffffffff16565b600060068381548110610f4d57610f4d6117ad565b60009182526020808320868452600782526040808520338652909252922060049091029091019150610f7e84610a8c565b805415610fc1576000610fb3826001015461055464e8d4a51000610502876003015487600001546110de90919063ffffffff16565b9050610fbf3382611115565b505b8154610fd8906001600160a01b0316333086611410565b8054610fe490846110fd565b80825560038301546110019164e8d4a510009161050291906110de565b6001820155604051838152849033907f90890809c654f11d6e72a28fa60149770a0d11ec6c92319d6ceb2bb0a4ea1a159060200160405180910390a350505050565b6000546001600160a01b0316331461106d5760405162461bcd60e51b8152600401610591906117dc565b6001600160a01b0381166110d25760405162461bcd60e51b815260206004820152602660248201527f4f776e61626c653a206e6577206f776e657220697320746865207a65726f206160448201526564647265737360d01b6064820152608401610591565b6110db816113c0565b50565b60006110ea828461187c565b9392505050565b60006110ea828461189b565b60006110ea82846118bd565b60006110ea82846118d5565b6001546040516370a0823160e01b81523060048201526000916001600160a01b0316906370a0823190602401602060405180830381865afa15801561115e573d6000803e3d6000fd5b505050506040513d601f19601f8201168201806040525081019061118291906117c3565b90508082111561120a5760015460405163a9059cbb60e01b81526001600160a01b038581166004830152602482018490529091169063a9059cbb906044015b6020604051808303816000875af11580156111e0573d6000803e3d6000fd5b505050506040513d601f19601f82011682018060405250810190611204919061182e565b50505050565b60015460405163a9059cbb60e01b81526001600160a01b038581166004830152602482018590529091169063a9059cbb906044016111c1565b505050565b6040516001600160a01b03831660248201526044810182905261124390849063a9059cbb60e01b906064015b60408051601f198184030181529190526020810180516001600160e01b03166001600160e01b031990931692909217909152611448565b8015806113255750604051636eb1769f60e11b81523060048201526001600160a01b03838116602483015284169063dd62ed3e90604401602060405180830381865afa1580156112ff573d6000803e3d6000fd5b505050506040513d601f19601f8201168201806040525081019061132391906117c3565b155b6113905760405162461bcd60e51b815260206004820152603660248201527f5361666545524332303a20617070726f76652066726f6d206e6f6e2d7a65726f60448201527520746f206e6f6e2d7a65726f20616c6c6f77616e636560501b6064820152608401610591565b6040516001600160a01b03831660248201526044810182905261124390849063095ea7b360e01b90606401611274565b600080546001600160a01b038381166001600160a01b0319831681178455604051919092169283917f8be0079c531659141344cd1fd0a4f28419497f9722a3daafe3b4186f6b6457e09190a35050565b6040516001600160a01b03808516602483015283166044820152606481018290526112049085906323b872dd60e01b90608401611274565b600061149d826040518060400160405280602081526020017f5361666545524332303a206c6f772d6c6576656c2063616c6c206661696c6564815250856001600160a01b031661151a9092919063ffffffff16565b80519091501561124357808060200190518101906114bb919061182e565b6112435760405162461bcd60e51b815260206004820152602a60248201527f5361666545524332303a204552433230206f7065726174696f6e20646964206e6044820152691bdd081cdd58d8d9595960b21b6064820152608401610591565b60606115298484600085611531565b949350505050565b6060824710156115925760405162461bcd60e51b815260206004820152602660248201527f416464726573733a20696e73756666696369656e742062616c616e636520666f6044820152651c8818d85b1b60d21b6064820152608401610591565b843b6115e05760405162461bcd60e51b815260206004820152601d60248201527f416464726573733a2063616c6c20746f206e6f6e2d636f6e74726163740000006044820152606401610591565b600080866001600160a01b031685876040516115fc9190611918565b60006040518083038185875af1925050503d8060008114611639576040519150601f19603f3d011682016040523d82523d6000602084013e61163e565b606091505b509150915061164e828286611659565b979650505050505050565b606083156116685750816110ea565b8251156116785782518084602001fd5b8160405162461bcd60e51b81526004016105919190611934565b6000602082840312156116a457600080fd5b5035919050565b6001600160a01b03811681146110db57600080fd5b600080604083850312156116d357600080fd5b8235915060208301356116e5816116ab565b809150509250929050565b80151581146110db57600080fd5b60008060006060848603121561171357600080fd5b833592506020840135611725816116ab565b91506040840135611735816116f0565b809150509250925092565b60006020828403121561175257600080fd5b81356110ea816116ab565b6000806040838503121561177057600080fd5b50508035926020909101359150565b60008060006060848603121561179457600080fd5b83359250602084013591506040840135611735816116f0565b634e487b7160e01b600052603260045260246000fd5b6000602082840312156117d557600080fd5b5051919050565b6020808252818101527f4f776e61626c653a2063616c6c6572206973206e6f7420746865206f776e6572604082015260600190565b60006020828403121561182357600080fd5b81516110ea816116ab565b60006020828403121561184057600080fd5b81516110ea816116f0565b634e487b7160e01b600052601160045260246000fd5b60006000198214156118755761187561184b565b5060010190565b60008160001904831182151516156118965761189661184b565b500290565b6000826118b857634e487b7160e01b600052601260045260246000fd5b500490565b600082198211156118d0576118d061184b565b500190565b6000828210156118e7576118e761184b565b500390565b60005b838110156119075781810151838201526020016118ef565b838111156112045750506000910152565b6000825161192a8184602087016118ec565b9190910192915050565b60208152600082518060208401526119538160408501602087016118ec565b601f01601f1916919091016040019291505056fea26469706673582212203e66ced689348881fba6aa9d33222f8a8867ab14e0bf1553bbad38f897d50f1c64736f6c634300080c0033",
  "linkReferences": {},
  "deployedLinkReferences": {}
}